:100000000C942A000C9447000C9447000C94470071
:100010000C94A3040C947A040C9447000C9451049F
:100020000C9447000C9428040C94FF030C94D60302
:100030000C9447000C94DC050C9447000C9447008A
:100040000C9447000C9447000C9447000C94470014
:100050000C94470011241FBECFE5D8E0DEBFCDBF12
:1000600011E0A0E6B0E0EEEAF5E302C005900D92E3
:10007000A43CB107D9F722E0A4ECB1E001C01D9285
:10008000A231B207E1F70E94761A0C94D51A0C94AB
:100090000000FC01892BF1F03E983F98808180FDA3
:1000A0003E9A808181FD3F9A3D98389839983A98D8
:1000B0003B983C98309831983298818180FD309AF5
:1000C000818181FD319A818182FD329A379A90E057
:1000D00080E0089581E090E00895379890E080E016
:1000E0000895883088F4389839983A983B983C9825
:1000F00080FD389A81FD399A8695869509F03A9A5D
:10010000369A90E080E0089581E090E0089586B10D
:100110008295869586958370809581700895009765
:1001200059F034B125B1232732272327FC0131832D
:10013000208390E080E0089581E090E00895CF93DF
:10014000DF93EB010E947100009749F40E94870041
:100150008823E1F3CE01DF91CF910C948F00DF91E2
:10016000CF910895843030F4683020F4442329F08E
:100170004130C9F081E090E00895E82FF0E0EE0F03
:10018000FF1FE859FF4F0190F081E02D208181E0B1
:1001900090E001C0880F6A95EAF7809582238083FA
:1001A00090E080E00895E82FF0E0EE0FFF1FE8599F
:1001B000FF4F0190F081E02D808121E030E001C00F
:1001C000220F6A95EAF7822BEACF843020F4662367
:1001D00029F0613081F081E090E00895E82FF0E0AF
:1001E000EE0FFF1FE859FF4F0190F081E02D1082C4
:1001F00090E080E00895E82FF0E0EE0FFF1FE8594F
:10020000FF4F0190F081E02D8FEF8083F1CF84309C
:10021000D0F46830C0F4E3E3F0E0823051F0E0E382
:10022000F0E0833031F0E6E3F0E0813011F0E9E313
:10023000F0E0808190E002C0959587956A95E2F79D
:1002400081709927089590E080E00895843070F4DB
:10025000823041F0833041F0813011F089B308954C
:1002600086B3089583B3089580B3089580E0089518
:100270008430E0F46830D0F4E5E3F0E0823051F00F
:10028000E2E3F0E0833031F0EBE3F0E0813011F4B1
:10029000E8E3F0E0808121E030E001C0220F6A95C0
:1002A000EAF78227808390E080E0089581E090E083
:1002B0000895843008F56830F8F4E5E3F0E0823022
:1002C00051F0E2E3F0E0833031F0EBE3F0E0813035
:1002D00011F4E8E3F0E081E090E001C0880F6A9556
:1002E000EAF79081411106C080958923808390E0D0
:1002F00080E00895892BFACF81E090E00895843062
:1003000090F4E5E3F0E0823051F0E2E3F0E0833096
:1003100031F0EBE3F0E0813011F4E8E3F0E06083EA
:1003200090E080E0089581E090E00895CF92DF9220
:10033000EF92FF92CF93DF93EC01892B09F442C037
:10034000288139814A815B8121153105410551059B
:10035000C9F1C12C62E1D62E6AE7E62EF12CC70165
:10036000B6010E94991A213131054105510550F11C
:1003700008980998288139814A815B81C701B601B3
:100380000E94991ADA01C9014097A109B109B695ED
:10039000A795979587958F3F9105A105B10529F000
:1003A00020F08FEF90E0A0E0B0E080B986B78460E5
:1003B00086BF90E080E0DF91CF91FF90EF90DF90DB
:1003C000CF90089581E090E0F6CF009761F0FC01B6
:1003D0002081220F22B981818111109A84EC86BF7D
:1003E00090E080E0089581E090E0089586B78B7FEB
:1003F00086BF90E080E0089584EA86BF06B607FED7
:10040000FDCF21B1287F283031F081E090E020310C
:1004100021F480E0089580E090E0089584E986BFAB
:1004200006B604FCFDCF90E080E0089583B984E82F
:1004300086BF06B607FEFDCF90E080E0089581E01C
:1004400090E0089581E090E0089581E090E00895C3
:1004500081E090E0089581E090E008950895089586
:1004600081E090E0089581E090E0089581E090E0DF
:10047000089581E090E0089581E090E0089581E0A2
:1004800090E0089583309105E8F46770813091051C
:1004900059F0029781F083B7887F83BF83B7682BB9
:1004A00063BF90E080E008958EB5887F8EBD8EB5E5
:1004B000682B6EBDF6CF85B5887F85BD85B5682B69
:1004C00065BDEFCF81E090E00895FC01892B09F430
:1004D00042C02081318123303105E8F5828193814A
:1004E00021153105D9F022303105D9F12FB52E7FF4
:1004F0002FBD2FB52D7F2FBD2EB5277F2EBD2EB53D
:100500002F7E2EBD8130910509F447C0E0F002979F
:1005100009F440C08FB581608FBD15C08130910551
:1005200061F028F00297D1F083B7806402C083B7EE
:100530008F7B83BF83B7877F05C083B78F7B83BFE4
:1005400083B7886083BF808191818130910599F163
:1005500040F10297C9F181E090E0089583B780648B
:10056000EECF8130910561F028F0029781F085B5DA
:10057000806402C085B58F7B85BD85B5877F05C04A
:1005800085B58F7B85BD85B5886085BDDCCF85B59C
:100590008064F8CF8FB581608FBD8EB588608EBDC9
:1005A000D2CF868182BF80858CBF64817581808136
:1005B00091810C944202868197819DBD8CBD80857E
:1005C00091859BBD8ABDF1CF868184BD808583BD29
:1005D000ECCF8330910598F48130910541F002977A
:1005E00051F083B7887F83BF90E080E008958EB597
:1005F000887F8EBDF9CF85B5887F85BDF5CF81E039
:1006000090E008958330910570F48130910531F0C8
:10061000029739F062BF90E080E008957DBD6CBD27
:10062000FACF64BDF8CF81E090E00895FB018330FC
:10063000910598F4309789F08130910529F002975F
:1006400051F082B790E002C08CB59DB59183808354
:1006500090E080E0089584B5F5CF81E090E00895C2
:100660008330910570F48130910531F0029739F0B3
:100670006CBF90E080E008957BBD6ABDFACF63BD9A
:10068000F8CF81E090E0089583309105D8F481306F
:10069000910561F0029781F089B791E0672B09F02D
:1006A00092E0892B89BF90E080E0089589B790E1BE
:1006B000672BB9F794E0F5CF89B790E8672B89F7F6
:1006C00090E4EFCF81E090E0089583309105D8F475
:1006D0008130910561F0029781F089B79EEF672B19
:1006E00009F09DEF892389BF90E080E0089589B7E4
:1006F0009FEE672BB9F79BEFF5CF89B79FE7672B85
:1007000089F79FEBEFCF81E090E00895CF93DF93DF
:100710008330910548F5EC0170E060E00E946503CC
:1007200061E070E0CE010E946503C130D105A1F007
:10073000C230D105B1F013BE12BECC0FDD1FCC0FFD
:10074000DD1FCC53DE4F198218821B821A8290E083
:1007500080E0DF91CF9108951FBC1EBC1DBC1CBC66
:10076000ECCF15BC14BCE9CF81E090E0F2CF833030
:10077000910588F44115510571F0FC01EE0FFF1F42
:10078000E60FF71FEE0FFF1FEC53FE4F5183408320
:1007900090E080E0089581E090E008958FB7806850
:1007A0008FBF08958FB78F778FBF08951F920F92D5
:1007B0000FB60F9211242F933F934F935F936F9334
:1007C0007F938F939F93AF93BF93EF93FF93E091AA
:1007D000C401F091C501309709F00995FF91EF919F
:1007E000BF91AF919F918F917F916F915F914F9149
:1007F0003F912F910F900FBE0F901F9018951F9251
:100800000F920FB60F9211242F933F934F935F9344
:100810006F937F938F939F93AF93BF93EF93FF93C8
:10082000E091C601F091C701309709F00995FF9159
:10083000EF91BF91AF919F918F917F916F915F9158
:100840004F913F912F910F900FBE0F901F901895D1
:100850001F920F920FB60F9211242F933F934F9335
:100860005F936F937F938F939F93AF93BF93EF9318
:10087000FF93E091C801F091C901309709F0099503
:10088000FF91EF91BF91AF919F918F917F916F9168
:100890005F914F913F912F910F900FBE0F901F903E
:1008A00018951F920F920FB60F9211242F933F931A
:1008B0004F935F936F937F938F939F93AF93BF9368
:1008C000EF93FF93E091CA01F091CB01309709F0CB
:1008D0000995FF91EF91BF91AF919F918F917F917A
:1008E0006F915F914F913F912F910F900FBE0F909D
:1008F0001F9018951F920F920FB60F9211242F93ED
:100900003F934F935F936F937F938F939F93AF9397
:10091000BF93EF93FF93E091CC01F091CD0130971D
:1009200009F00995FF91EF91BF91AF919F918F9140
:100930007F916F915F914F913F912F910F900FBEDB
:100940000F901F9018951F920F920FB60F921124BF
:100950002F933F934F935F936F937F938F939F93C7
:10096000AF93BF93EF93FF93E091CE01F091CF014E
:10097000309709F00995FF91EF91BF91AF919F9149
:100980008F917F916F915F914F913F912F910F9038
:100990000FBE0F901F901895CF93DF93EC01892B1A
:1009A000D1F188819981AA81BB810097A105B10508
:1009B00091F19C01AD0184E0220F331F441F551FAC
:1009C0008A95D1F760E074E284EF90E00E94991A72
:1009D00021503109832F8F7080BD29B98E81829576
:1009E00080739885990F990F990F9870892B80685B
:1009F0009C81990F9670892B80BD8C819D81079772
:100A000041F4529A539A549A90E080E0DF91CF914A
:100A100008955298F7CF81E090E0F8CF539854981A
:100A20005798569855981092D1011092D00190E0A5
:100A300080E008955D9BFECF8CB990E080E0089542
:100A4000009741F05F9BFECF2CB1FC01208390E02A
:100A500080E0089581E090E00895009741F05F9B69
:100A600006C02CB1FC01208390E080E0089581E075
:100A700090E00895CF93DF93EC01892B29F481E076
:100A800090E007C00E941A0589918111FBCF90E088
:100A900080E0DF91CF910895EF92FF920F931F9323
:100AA000CF93DF9300D000D000D0CDB7DEB7009752
:100AB00079F480E326960FB6F894DEBF0FBECDBF63
:100AC000DF91CF911F910F91FF90EF900C941A0539
:100AD0008E010F5F1F4FF80120E03AE0E32EF12C6A
:100AE0002F5FB7010E94851A805D8193CB0100972B
:100AF00029F5322F3695822F90E0D801A80FB91F23
:100B0000780111972E2D201B2317D8F0800F911FED
:100B1000FC011082F80181918F0181111DC090E0CC
:100B200080E026960FB6F894DEBF0FBECDBFDF91F2
:100B3000CF911F910F91FF90EF900895253081F68E
:100B4000D8CFF70121917F016C91AF01415051093C
:100B5000FA0160832C93D5CF0E941A05DBCF009752
:100B6000D9F061157105C1F0FC0130E020E0615061
:100B700071092617370738F0820F931FFC01108286
:100B800090E080E008955F9BFECF5CB14517A1F334
:100B900051932F5F3F4FEDCF81E090E00895009794
:100BA00041F09093D1018093D001579A90E080E07A
:100BB000089581E090E008951F920F920FB60F9272
:100BC00011242F933F934F935F936F937F938F9352
:100BD0009F93AF93BF93EF93FF938CB1E091D001BC
:100BE000F091D101309709F00995FF91EF91BF91F4
:100BF000AF919F918F917F916F915F914F913F91B5
:100C00002F910F900FBE0F901F901895DB01FA01E6
:100C100082309105A1F028F4019761F01C921082B6
:100C200008958330910579F00497C1F783E08C93A0
:100C300087E003C081E08C9383E08083089583E0A4
:100C40008C9385E0FACF83E08C9384E0F6CF8230FA
:100C5000910561F018F4019739F0089583309105FA
:100C600049F0049759F008956CBF089570E07BBD7A
:100C70006ABD089570E079BD68BD089563BD0895AB
:100C8000EF92FF921F93CF93DF93EC017B01CB0197
:100C9000019710E040E08330910540F4FC01ED58ED
:100CA000FF4F4081FC01E059FF4F1081288522232E
:100CB00029F0029718F4842F412F182F6981888119
:100CC0000E945901412F6B818A810E945901FC8643
:100CD000EB86DF91CF911F91FF90EF9008958230C6
:100CE000910591F018F4019739F00895833091053A
:100CF00099F00497C1F0089583B7662319F08062D4
:100D000083BF08958F7DFCCF8FB5662319F080686F
:100D10008FBD08958F77FCCF8FB5662311F0806269
:100D2000F7CF8F7DF5CF85B5662319F0806285BD3D
:100D300008958F7DFCCF0F931F93CF93DF9300D047
:100D4000CDB7DEB78C011A821982FC0186819781AA
:100D5000009789F441E08285811101C040E0F801EB
:100D6000658184810E9459010F900F90DF91CF918E
:100D70001F910F910895AE014F5F5F4FBE016E5FEF
:100D80007F4F0E940606F8018285268137818111F6
:100D900008C060E0C9010E946F0640E069818A8155
:100DA000E1CFFFEF8F9FC001112464E670E00E9445
:100DB000851AC9010E94270661E0F80186819781A2
:100DC0000E946F06D1CF0F931F93CF93DF9300D074
:100DD000CDB7DEB7FC011A821982892B49F481E074
:100DE00090E00F900F90DF91CF911F910F91089598
:100DF00080818430A0F79281943088F726813781F2
:100E00002530310560F78F0141E061810E94B20019
:100E100041E0F801638182810E94B20040E0F80164
:100E2000618180810E94590140E0F80163818281E3
:100E30000E945901F801868197810097E1F484812D
:100E4000843068F641E065810E94B20040E0F8011C
:100E5000658184810E945901F801128681E08187B1
:100E600070E060E0C8010E944006C8010E949B0635
:100E700090E080E0B6CFAE014F5F5F4FBE016E5F86
:100E80007F4F0E94060641E069818A810E94B2007C
:100E900040E069818A810E945901F8018681978129
:100EA0008430910560F48230910598F4019769F0DF
:100EB00060E0F801868197810E946F06CDCF04978C
:100EC000B9F78CE485BD13BCF3CF8BE483BF1CBEA4
:100ED000EFCF8FB581608FBD8EB588608EBD8EB52A
:100EE00082608EBD8EB581608EBDE2CF009771F0BD
:100EF000FC012185222351F0653608F064E6FC01EF
:100F000062870E949B0690E080E0089581E090E077
:100F10000895CF93DF93009789F0FC012185222368
:100F200069F0EC0161E070E00E944006CE010E9491
:100F30009B0690E080E0DF91CF91089581E090E002
:100F4000FACFCF93DF93009789F0FC01218522230C
:100F500069F0EC0162E070E00E944006CE010E9460
:100F60009B0690E080E0DF91CF91089581E090E0D2
:100F7000FACF009769F0FC012185222349F0623005
:100F8000710530F4672B11F40C9489070C94A107B8
:100F900081E090E008950F931F93CF93DF9300D0EB
:100FA000CDB7DEB71A821982009771F1FC01218555
:100FB000222351F18C0170E060E00E944006F801AC
:100FC00086819781009771F440E0658184810E9459
:100FD000590190E080E00F900F90DF91CF911F9129
:100FE0000F910895AE014F5F5F4FBE016E5F7F4F5F
:100FF0000E94060660E0F801868197810E946F06D4
:1010000040E069818A81E3CF81E090E0E4CFCF9333
:10101000DF93009701F1FC0121852223E1F0EC012F
:1010200063E070E00E9440068E819F81009751F43A
:1010300041E06D818C810E94590190E080E0DF9158
:10104000CF9108956FEF0E94270661E08E819F8106
:101050000E946F06F2CF81E090E0F1CF009779F027
:10106000FC012185222359F06115710541F083852A
:101070009485FB019183808390E080E0089581E076
:1010800090E00895009769F0FC012185222349F042
:101090006115710531F08285FB01808390E080E06D
:1010A000089581E090E008950F931F93CF93DF930D
:1010B00000D0CDB7DEB71A821982009789F1FC0102
:1010C0002185222369F18C010E94CB07F8018681DA
:1010D00097810097C9F0AE014F5F5F4FBE016E5F11
:1010E0007F4F0E94060660E0F801868197810E948A
:1010F0006F0660E0F801868197810E94270640E034
:1011000069818A810E945901F8011286118690E056
:1011100080E00F900F90DF91CF911F910F91089574
:1011200081E090E0F6CFEF92FF921F93CF93DF9391
:10113000EC01892BC1F188818430A8F58A81843043
:1011400090F58981853078F58B81853060F510E0E8
:101150006981610F41E088810E94B200892B19F5F5
:101160006981610F41E088810E9459011F5F14303D
:1011700079F710E06B81610F40E08A810E94B20034
:101180007C01892B81F46B81610F41E08A810E948F
:1011900059011F5F143071F7C701DF91CF911F9183
:1011A000FF90EF900895EE24E394F12CF5CFCF92C9
:1011B000DF92EF92FF920F931F93CF93DF9300D0B4
:1011C00000D0CDB7DEB7009709F465C06115710591
:1011D00009F461C07B018C018FEFFB018083D12C6E
:1011E000C12CF80161816C0D41E080810E945901A0
:1011F000C394F4E0CF12F5CFF80161816D0D40E0AA
:1012000080810E945901C12CF80163816C0D82819B
:101210000E940701892BB9F51C821B828B819C815E
:101220004497F0F0F80163816C0D82810E94070100
:10123000892B49F5F80163816C0D82810E940701B9
:10124000892BC1F324E0D29EF0011124E00FF11F9D
:10125000EC0DF11D8481F701808390E080E01DC0DA
:101260001A82198289819A818034964030F08B816C
:101270009C8101969C838B83D1CF89819A81019631
:101280009A838983EFCFC394F4E0CF12BDCFD39478
:10129000DF12A6CFE2CF81E090E00F900F900F9089
:1012A0000F90DF91CF911F910F91FF90EF90DF9002
:1012B000CF9008950F931F93CF93DF93009791F0F2
:1012C000EB018C01209771F0BE01C8010E94D70884
:1012D000009741F428812F3FB9F3DF91CF911F91FF
:1012E0000F91089581E090E0F8CF81E090E00895BB
:1012F00081E090E0089581E090E0089581E090E041
:10130000089581E090E0089581E090E0089581E003
:1013100090E0089581E090E00895CF92DF92EF92FF
:10132000FF920F931F93CF93DF938C01C62F6A0117
:1013300079010E94FC01892B49F4F8018081880F12
:101340000E941602892B29F00E940E0201E010E093
:101350000EC08C2F0E9416028C01E601EC0CFD1CC5
:10136000892B91F7CE15DF0561F40E940E02C801AA
:10137000DF91CF911F910F91FF90EF90DF90CF9071
:10138000089589910E941602892B61F3DDCFCF93D6
:10139000DF931F92CDB7DEB76983009791F021E00C
:1013A00030E0AE014F5F5F4F60E00E948D09E7ECD7
:1013B000F0E03197F1F700C000000F90DF91CF917E
:1013C000089581E090E0F9CFEF92FF921F93CF93C1
:1013D000DF93EC01892B51F4EE24E394F12CC70147
:1013E000DF91CF911F91FF90EF900895888187FD45
:1013F000F3CF8981882381F39A81992369F385301A
:1014000058F71B822FEF80E792E0215080409040F8
:10141000E1F700C00000898118E3823008F410E38E
:10142000612FCE010E94C7097C01892BA9F68FE1AB
:101430009EE40197F1F700C00000612FCE010E94E9
:10144000C7098FE193E00197F1F700C00000612F19
:10145000CE010E94C7098FE193E00197F1F700C028
:10146000000088E08C8368E0CE010E94C70961E03B
:10147000CE010E94C7098FE39FE10197F1F700C0F9
:10148000000086E08D8366E0CE010E94C7098CE0F3
:101490008C836CE0CE010E94C7091E821F8281E00E
:1014A0008B839DCFCF93DF931F92CDB7DEB7698338
:1014B0000097B1F0FC012381222391F021E030E07C
:1014C000AE014F5F5F4F60E40E948D09E7ECF0E0F2
:1014D0003197F1F700C000000F90DF91CF91089590
:1014E00081E090E0F9CFAB010097A1F0FC012381EE
:1014F000222381F06115710569F0FB019F01241B16
:10150000350B61916111FACF2115310531F060E49D
:101510000C948D0981E090E0089590E080E00895BA
:101520004F925F926F927F92AF92BF92CF92DF9273
:10153000EF92FF920F931F93CF93DF93CDB7DEB758
:1015400066970FB6F894DEBF0FBECDBFFC01892BA6
:1015500009F478C02381222309F474C0DB01CA0195
:101560008F010097A105B105C9F460E3CF010E9486
:10157000520A66960FB6F894DEBF0FBECDBFDF915C
:10158000CF911F910F91FF90EF90DF90CF90BF9080
:10159000AF907F906F905F904F900895B7FF19C004
:1015A0002DE229839A01AB0166277727CB01621BC5
:1015B000730B840B950BAA24A3946E01FDE0CF0E50
:1015C000D11CB12C76012AE0422E512C612C712CB9
:1015D00012C0BA01CD01A12CF0CF2AE0B21681F0E1
:1015E000A30192010E94991A605DF60161936F0157
:1015F000B901CA01B394611571058105910569F7B7
:101600008B2DAB0C2A2D281B30E081110DC041E041
:1016100050E04C0F5D1F240F351FF9011082BA01F5
:10162000C8010E94730AA5CF815041E050E04C0FE1
:101630005D1F240F351FF701E80FF11D9081F9019F
:101640009083E0CF81E090E094CF0F931F93CF93EE
:10165000DF93EC01892B39F481E090E0DF91CF91A9
:101660001F910F9108958B818823B1F389816817A9
:1016700098F79A81491780F7623039F0905C6330AF
:1016800021F090E4613009F090E0042F162F940FC0
:10169000692F6068CE010E94C7090097E9F61E8392
:1016A0000F83DCCF0F931F93CF93DF93EC0189015E
:1016B0000E94250B892B41F4B801CE01DF91CF9117
:1016C0001F910F910C94730A81E090E0DF91CF910C
:1016D0001F910F910895CF93DF93009729F481E034
:1016E00090E0DF91CF910895FC0123812223B9F38B
:1016F000EC0161E00E94C709009789F7EFE3FFE181
:101700003197F1F700C000001E821F82EACFCF930D
:10171000DF93009729F481E090E0DF91CF91089565
:10172000FC0123812223B9F3EC0162E00E94C70986
:10173000009789F7EFE3FFE13197F1F700C0000070
:101740001E821F82EACFFC01892B71F083818823DE
:1017500059F08481662331F0846084836481CF01F1
:101760000C94C7098B7FF9CF81E090E00895FC01CC
:10177000892B71F08381882359F08481662331F0AD
:10178000826084836481CF010C94C7098D7FF9CF77
:1017900081E090E00895FC01892B71F0838188231A
:1017A00059F08481662331F0816084836481CF01A4
:1017B0000C94C7098E7FF9CF81E090E008950097DF
:1017C00059F0FC012381222339F0662319F06CE1E2
:1017D0000C94C70968E1FCCF81E090E00895EF9296
:1017E000FF920F931F93CF93DF93CDB7DEB7289768
:1017F0000FB6F894DEBF0FBECDBF009779F481E03D
:1018000090E028960FB6F894DEBF0FBECDBFDF91F3
:10181000CF911F910F91FF90EF900895FC012381CC
:10182000222369F34115510551F3683040F78A01CD
:101830007C01660F660F660F60640E94C709892BE2
:10184000F1F6F801DE0111969801285F3F4FAD01D6
:1018500081918F718D93E217F307D1F728E030E083
:1018600060E4C7010E948D09892B49F640E060E0E1
:10187000C7010E94250BC5CFCF93DF93EC0141E058
:101880006F818C810E9459018AE08A95F1F700C02E
:1018900040E06F818C810E9459018AE08A95F1F7BE
:1018A00000C0DF91CF910895EF92FF920F931F93A5
:1018B000CF93DF938C01D0E0C0E0E62EF12CA7019E
:1018C0000C2E02C0559547950A94E2F74170F80135
:1018D00063816C0F82810E9459012196C430D10529
:1018E00071F7C801DF91CF911F910F91FF90EF9099
:1018F0000C943C0CEF92FF920F931F93CF93DF93C6
:101900008C01C62FFC0180819181019741F5F12C5A
:10191000E12CD0E0AE010E2C02C0559547950A94FB
:10192000E2F74170F80163816E0D82810E945901D6
:10193000FFEFEF1AFF0A88E0E816F10459F7C80133
:101940000E943C0CE7ECF0E03197F1F700C000009A
:10195000DF91CF911F910F91FF90EF9008956295C5
:101960006F70C8010E94540C6C2F6F70C8010E94E8
:10197000540CE8CF1F93CF93DF93009789F0162F75
:10198000EC0140E06D818C810E945901612FCE01F4
:101990000E947A0C90E080E0DF91CF911F91089532
:1019A00081E090E0F9CF0F931F93CF93DF93EC0189
:1019B000892B09F4D4C08A81843008F0D0C08C818E
:1019C000843008F0CCC08985882309F4C8C09A8582
:1019D000992309F4C4C0853008F0C1C08881998179
:1019E00004E0019709F408E08B81800F9927991F83
:1019F000099708F0B4C010E06B81610F41E08A8163
:101A00000E94B2006B81610F40E08A810E945901FF
:101A10001F5F0113F1CF41E06D818C810E94B20004
:101A200041E06F818C810E94B20040E06D818C8129
:101A30000E94590140E06F818C810E945901888584
:101A4000882351F041E06E818C810E94B20040E019
:101A50006E818C810E9459012FEF80E792E0215026
:101A600080409040E1F700C0000088819981892B77
:101A700009F05CC063E0CE010E94540C8FE19EE44B
:101A80000197F1F700C0000063E0CE010E94540C02
:101A900087E592E00197F1F700C0000063E0CE0116
:101AA0000E94540C87E592E00197F1F700C0000016
:101AB00062E0CE010E94540C87E592E00197F1F7B5
:101AC00000C000008881998160E3019709F060E21D
:101AD0008985823008F06860CE010E94BA0C88E0E7
:101AE0008C8768E0CE010E94BA0C61E0CE010E94B2
:101AF000BA0C8FE39FE10197F1F700C0000086E088
:101B00008D8766E0CE010E94BA0C8CE08C876CE079
:101B1000CE010E94BA0C1E861F8681E08B8790E062
:101B200080E0DF91CF911F910F91089560E3CE0186
:101B30000E947A0C8FE19EE40197F1F700C000004B
:101B400060E3CE010E947A0C87E592E00197F1F7FD
:101B500000C0000060E3CE010E947A0CADCF81E0AE
:101B600090E0DFCF1F93CF93DF930097A9F0FC01A4
:101B70002385222389F0162FEC0141E065818481C1
:101B80000E945901612FCE010E947A0C90E080E002
:101B9000DF91CF911F91089581E090E0F9CF0F93ED
:101BA0001F93CF93DF93009741F0FC0123852223FD
:101BB00021F08C01EB01672B31F481E090E008C04B
:101BC000C8010E94B20D69916111FACF90E080E0E6
:101BD000DF91CF911F910F9108954F925F926F9275
:101BE0007F92BF92CF92DF92EF92FF920F931F935B
:101BF000CF93DF93CDB7DEB72A970FB6F894DEBF49
:101C00000FBECDBFFC01009709F471C023852223CC
:101C100009F46DC04115510561057105B1F460E32A
:101C20002A960FB6F894DEBF0FBECDBFDF91CF91DD
:101C30001F910F91FF90EF90DF90CF90BF907F901A
:101C40006F905F904F900C94B20D6A017B018C01F4
:101C5000CB01BA01F7FE0BC06DE2CF010E94B20DBD
:101C600066277727CB016C197D098E099F099E0194
:101C70002F5F3F4F7901B12C69012AE0422E512C90
:101C8000612C712C611571058105910519F0FAE03F
:101C9000BF1218C0B11022C090E080E02A960FB6A3
:101CA000F894DEBF0FBECDBFDF91CF911F910F9192
:101CB000FF90EF90DF90CF90BF907F906F905F90FC
:101CC0004F900895A30192010E94991A605DF70157
:101CD00061937F01B901CA01B394D4CFBA94F601DC
:101CE000EB0DF11D6081C8010E94B20DD3CF81E0E0
:101CF00090E0D4CF0F931F93CF93DF93EC01892B08
:101D000019F18B85882301F189856817E8F49A8594
:101D10004917D0F4623039F0905C633021F090E4E0
:101D2000613009F090E0042F162F940F692F60683E
:101D3000CE010E94BA0C1E870F8790E080E0DF91F1
:101D4000CF911F910F91089581E090E0F8CF0F930C
:101D50001F93CF93DF93EC0189010E947A0E892BA8
:101D600041F4B801CE01DF91CF911F910F910C94F6
:101D7000CF0D81E090E0DF91CF911F910F910895F9
:101D8000CF93DF930097A9F0FC012385222389F0EC
:101D9000EC0161E00E94BA0C8FE39FE10197F1F73B
:101DA00000C000001E861F8690E080E0DF91CF918A
:101DB000089581E090E0FACFCF93DF930097A9F0E8
:101DC000FC012385222389F0EC0162E00E94BA0C19
:101DD0008FE39FE10197F1F700C000001E861F8688
:101DE00090E080E0DF91CF91089581E090E0FACF1C
:101DF000FC01892B71F08385882359F08485662343
:101E000031F0846084876485CF010C94BA0C8B7F99
:101E1000F9CF81E090E00895FC01892B71F0838572
:101E2000882359F08485662331F082608487648535
:101E3000CF010C94BA0C8D7FF9CF81E090E008952A
:101E4000FC01892B71F08385882359F084856623F2
:101E500031F0816084876485CF010C94BA0C8E7F49
:101E6000F9CF81E090E00895009759F0FC012385B7
:101E7000222339F0662319F06CE10C94BA0C68E166
:101E8000FCCF81E090E00895EF92FF920F931F93B3
:101E9000CF93DF93009741F1FC012385222321F1A9
:101EA0004115510509F16830F8F4EA018C01660F1B
:101EB000660F660F60640E94BA0C7E01F8E0EF0EB8
:101EC000F11C69916F71C8010E94B20DCE15DF053A
:101ED000C1F740E060E0C801DF91CF911F910F9101
:101EE000FF90EF900C947A0E81E090E0DF91CF911B
:101EF0001F910F91FF90EF900895FC0180819181D7
:101F0000009719F0019781F0089524853585A0ED9B
:101F1000B7E00E94BB1A28EE33E040E050E00E9498
:101F2000991A3BBD2ABD089524853585A0EDB7E0FB
:101F30000E94BB1A28EE33E040E050E00E94991A5C
:101F400039BD28BD0895EF92FF920F931F93CF9351
:101F5000DF93EC01892B49F481E090E0DF91CF9190
:101F60001F910F91FF90EF900895E880F98083E032
:101F7000E816F10488F74885442371F30C811D812C
:101F80002E813F810217130738F719861A86A42F6E
:101F9000A695AB87201B310BB0E00E94BB1A242F03
:101FA00030E050E040E00E94991A200F311F3D8739
:101FB0002C8782E0E816F10449F58A81843060F6C6
:101FC00041E06B810E94B20040E06B818A810E94F7
:101FD0005901E4EDF1E090E080E021913191232B73
:101FE00081F4880F991FFC01EC52FE4FD183C0830E
:101FF00081E089878A87CE010E947D0F90E080E092
:10200000ADCF01968830910541F7A6CF8091D201DE
:1020100081110DC082E08FBD8AE18EBD8FE39CE906
:1020200097BD86BD1DBC1CBC81E08093D201888118
:10203000998141E0892B69F465E083E00E94B20058
:102040008FB580688FBD8091D3018F5F8093D3015E
:10205000CFCF64E083E00E94B2008FB58062F2CF00
:102060000F931F93CF93DF93EC01892B29F189857F
:10207000882311F148854617F8F06B870C811D8184
:102080002E813F81201B310BA62FB0E00E94BB1A8E
:10209000242F30E050E040E00E94991A200F311FB9
:1020A0003D872C87CE010E947D0F90E080E0DF917C
:1020B000CF911F910F91089581E090E0F8CFCF93D9
:1020C000DF93EC01892B49F18985882331F1EC817B
:1020D000FD814E815F816E177F07E8F04617570735
:1020E00008F4BA017D876C879B012E1B3F0BA885E6
:1020F000B0E00E94BB1A4E1B5F0B9A0150E040E01B
:102100000E94991A2B87CE010E947D0F90E080E0FB
:10211000DF91CF910895BF01E5CF81E090E0F8CF46
:10212000009769F0FC012185222349F061157105B2
:1021300031F08385FB01808390E080E0089581E0A9
:1021400090E00895CF93DF93009719F1FC0121856A
:102150002223F9F0EC0180819181009771F48FB511
:102160008F778FBD40E065E083E00E9459011A86B9
:1021700090E080E0DF91CF910895019731F48FB521
:102180008F7D8FBD40E064E0EFCF40E063818281CE
:10219000ECCF81E090E0EECF0097D1F0FC012185FB
:1021A0002223B1F0208131812115310559F42FB559
:1021B00020682FBD21E0FC0122870E947D0F90E066
:1021C00080E0089521303105A9F72FB52062F1CFC5
:1021D00081E090E008958F929F92AF92BF92DF923C
:1021E000EF92FF920F931F93CF93DF9304ED11E0D3
:1021F00084EEE82E81E0F82ED12C90EA892E9FE023
:10220000992EA12CB12CF801C191D1918F01209769
:10221000F1F08A858823D9F041E06B818A810E94A0
:1022200059012C853D85A0E8BEE30E94BB1AA5019B
:1022300094010E94991A2115310519F0C9010197DD
:10224000F1F740E06B818A810E945901D394E01636
:10225000F106C9F681E090E0DD2011F090E080E029
:10226000DF91CF911F910F91FF90EF90DF90BF9082
:10227000AF909F908F900895CF93DF930097B1F127
:10228000FC012185222391F1EC010E94A21088819A
:1022900099810297D9F4E4EDF1E090E080E021919A
:1022A00031912C173D0769F4880F991FFC01EC52FE
:1022B000FE4F11821082198690E080E0DF91CF916D
:1022C000089501968830910551F7F5CF8091D3019B
:1022D000882319F081508093D3018091D30181111B
:1022E000EACF1FBC1EBC1092D201E5CF81E090E086
:1022F000E5CFDF92EF92FF920F931F93CF93DF937F
:102300007C010097C9F16A30B8F5FC0182819381A4
:10231000009769F5C62FD0E0CA58DF4F688197E073
:10232000D92EF70180819181019709F4609510E021
:1023300000E0C62FD0E0AE01002E02C055954795B3
:102340000A94E2F74170F7016581600F84810E9471
:102350005901009789F40F5F1F4F0D1560F3DF914E
:10236000CF911F910F91FF90EF90DF90089501970B
:1023700019F484E0D82ED5CF81E090E0F0CFFF9221
:102380000F931F93CF93DF93EC01892B51F08C8136
:10239000843038F48A819B81009731F004E0019702
:1023A00021F081E090E01CC007E08D818830C8F703
:1023B000800F9927991F0997A4F7FF24F394888128
:1023C0009981892B09F4F12C10E06D81610F4F2D5B
:1023D0008C810E945901009721F71F5F0113F5CFEF
:1023E000DF91CF911F910F91FF9008950F931F934D
:1023F000CF93DF93EC01892B39F481E090E0DF91FA
:10240000CF911F910F9108958C818430B0F78A810C
:102410009B81009711F104E0019779F78D81883055
:1024200060F7800F9927991F09973CF710E06D819D
:10243000610F41E08C810E94B200892BF1F61F5F91
:102440000113F5CFCE010E94BF1131E020E0892BAE
:1024500009F430E0832F922FD2CF07E0DFCF843012
:1024600090F4683080F491E04130510509F090E03B
:10247000492F0E94590131E020E0892B09F430E016
:10248000832F922F089581E090E00895843090F496
:10249000683080F491E04130510509F490E0492F13
:1024A0000E94590131E020E0892B09F430E0832FAC
:1024B000922F089581E090E00895009741F00297EF
:1024C00069F06370E62FF0E0E857FF4F05C06370D6
:1024D000E62FF0E0E457FF4F808108956770E62F04
:1024E000F0E0E058FF4FF8CF1F93CF93DF93EC015C
:1024F000162F462F4170698188810E94590111FB76
:10250000442740F96B818A810E94590112FB4427BC
:1025100040F96D818C810E94590113FB442740F9D9
:102520006F818E810E94590181E0111101C080E00C
:102530008D8BDF91CF911F910895CF93DF93EC01A5
:10254000892B29F481E090E0DF91CF910895888173
:102550008430C0F79A819430A8F79C81943090F72A
:102560009E81943078F72F853889232B59F341E0E9
:1025700069810E94B20041E06B818A810E94B200B1
:1025800041E06D818C810E94B20041E06F818E81BB
:102590000E94B2008C858823C9F08885843090F62B
:1025A0009A85943078F641E069850E94B20041E056
:1025B0006B858A850E94B20041E0698588850E940A
:1025C000590141E06B858A850E94590189899A8960
:1025D000892B21F481E090E09A8B898B1C8A1E8ADA
:1025E0001F8A188E198E1D8A60E0CE010E94741217
:1025F00081E08B8B90E080E0A7CFFC01892B61F01C
:102600008389882349F06330710530F476876587C4
:10261000148A90E080E0089581E090E008950097AA
:1026200079F0FC012389222359F06115710511F419
:1026300061E070E0FC01728B618B90E080E00895B6
:1026400081E090E00895CF93DF93EC01892B49F16D
:102650008B89882331F16115710519F12F8538892E
:1026600050E040E08D859E85029721F4220F331FB4
:10267000441F551FDB010E94CA1A9B01AC0160E692
:102680007AEE80E090E00E94991A2115310541050B
:10269000510539F03A8B298B90E080E0DF91CF91A2
:1026A000089581E090E0FACFCF92DF92EF92FF920F
:1026B000CF93DF93EC01AB01892B09F440C08B89E8
:1026C0008823E9F162307105D0F52D853E8564E0FF
:1026D0002230310509F468E08C8970E0CE88DF880B
:1026E000E88CF98C90E0452BF1F401960E94851A54
:1026F0008C8B8FEFC81AD80AE80AF80ACE8ADF8ACC
:10270000E88EF98E6C89C9010E945D12682FCE0196
:102710000E94741290E080E0DF91CF91FF90EF90E3
:10272000DF90CF900895860F971F01970E94851A1A
:102730008C8B81E0C81AD108E108F108DFCF81E075
:1027400090E0EACFCF92DF92EF92FF920F931F9328
:10275000CF93DF93009771F1FC012389222351F17C
:102760004230510538F58A016B01EC01F12CE12C66
:10277000CE14DF0459F490E080E0DF91CF911F91F7
:102780000F91FF90EF90DF90CF900895B801CE01A8
:102790000E94541389899A89009721F4FFEFEF1A58
:1027A000FF0AE6CFEFE9FFE03197F1F700C0000044
:1027B0000197F2CF81E090E0E0CF0F931F93CF938A
:1027C000DF93EC018A01892B09F18B898823F1F0D1
:1027D0002F85388950E040E08D859E85029721F451
:1027E000220F331F441F551FDB010E94CA1A28E61F
:1027F00031E040E050E00E94991AB901A801CE01F1
:10280000DF91CF911F910F910C94A21381E090E082
:10281000DF91CF911F910F910895CF93DF93009790
:1028200001F1FC0123892223E1F0EC018485882356
:1028300051F041E0618580850E94590141E06B853E
:102840008A850E9459016C898D859E850E945D1242
:10285000682FCE010E94741290E080E0DF91CF914A
:10286000089581E090E0FACFCF93DF930097D9F0FD
:10287000FC0123892223B9F0EC0160E00E9474126C
:102880008C85882351F040E0698588850E94590134
:1028900040E06B858A850E9459011D8A90E080E0A6
:1028A000DF91CF91089581E090E0FACF009799F001
:1028B000FC012389222379F06115710561F0868975
:1028C0009789A08DB18DFB0180839183A283B3830F
:1028D00090E080E0089581E090E00895009759F03D
:1028E000FC012389222339F0168A178A108E118E53
:1028F00090E080E0089581E090E00895FC01892B4C
:10290000A1F08389882389F06115710571F027850D
:10291000308985859685029711F4220F331FFB01BC
:102920003183208390E080E0089581E090E0089575
:10293000FC0190818181982B8281982B9F706F5F21
:102940002FEF30E001C0220F6A95EAF7892F82232A
:102950000895FC0190818181982B8281892B21E04F
:1029600030E001C0220F6A95EAF7215082230895D2
:10297000E7EEF1E01082118212821092E4011092CF
:10298000E6011092E50108950895843048F561301C
:1029900081F018F06230C9F0089521E030E001C004
:1029A000220F8A95EAF78091E701822B8093E70155
:1029B000089521E030E001C0220F8A95EAF7809166
:1029C000E801822B8093E801089521E030E001C006
:1029D000220F8A95EAF78091E901822B8093E90121
:1029E00008958430C8F421E030E0A90102C0440F0A
:1029F000551F8A95E2F7CA0180959091E7019823C7
:102A00009093E7019091E80198239093E8019091C9
:102A1000E90189238093E9010895FF920F931F93A1
:102A2000CF93DF938C01F62EEA014130510579F402
:102A30000E94981481111DC06F2DC8010E94A91415
:102A4000D0E0C0E08823A9F0C2E0D0E012C042305C
:102A50005105B1F40E94A91481110BC06F2DC8015A
:102A60000E94981421E090E0811101C020E0C22F63
:102A7000D92FCE01DF91CF911F910F91FF90089533
:102A80000E949814C1E0D0E08823B1F2F2CFAF9257
:102A9000BF92CF92DF92EF92FF920F931F93CF934B
:102AA000DF938091E5019091E601D091E4018130BE
:102AB000910509F041C0E090E701F12CC090E801D8
:102AC000D12CA090E901B12C01E00D0F10E0C02F36
:102AD000043068F0CD2F8C2FDF91CF911F910F9193
:102AE000FF90EF90DF90CF90BF90AF900895C70117
:102AF000002E02C0969587950A94E2F780FDEBCFF1
:102B0000C6010C2E02C0969587950A94E2F780FDC7
:102B1000E2CFC5010C2E02C0969587950A94E2F784
:102B200080FF07C0602F87EE91E00E9498148823F1
:102B300091F20F5F1F4FCBCF029761F60091E70133
:102B400010E0E090E901F12CC090E801D12CCD2FEC
:102B5000CC2309F4BFCFC15098010C2E02C036958A
:102B600027950A94E2F720FDB6CF97010C2E02C0FC
:102B7000369527950A94E2F720FDADCF96010C2EED
:102B800002C0369527950A94E2F720FFE1CF6C2F1B
:102B900087EE91E00E94A9148111DACF9CCF0C94AA
:102BA000B8140C94C5140C94F114CF93DF93EB017B
:102BB0008093E4014091E5015091E601682F87EE92
:102BC00091E00E940D159093E6018093E501209716
:102BD00011F099838883DF91CF910C944715CF939F
:102BE000DF9300D000D0CDB7DEB71C821B822B81D3
:102BF0003C812817390738F00F900F900F900F90F5
:102C0000DF91CF9108951A82198229813A81203467
:102C1000364038F02B813C812F5F3F4F3C832B8324
:102C2000E6CF29813A812F5F3F4F3A832983EDCF49
:102C300097B1907F8770982B97B9369A81E197E288
:102C4000369B02C00197E1F784B195B10895AF9228
:102C5000BF92CF92DF92EF92FF920F931F93CF9389
:102C6000DF93CDB7DEB760970FB6F894DEBF0FBE27
:102C7000CDBF40E060E083E00E94B20041E061E04F
:102C800083E00E94B2008AE0E0E9F0E0DE01119604
:102C900001900D928A95E1F7CE0101960E94CC0435
:102CA00041E067E083E00E94B20040E067E083E03B
:102CB0000E94590141E062E082E00E94B20041E0DE
:102CC00063E082E00E94B20041E064E082E00E94A2
:102CD000B20040E062E082E00E94590140E063E01F
:102CE00082E00E94590140E064E082E00E945901C4
:102CF00041E064E080E00E94B20041E065E080E0F5
:102D00000E94B20041E066E080E00E94B20041E033
:102D100067E080E00E94B20040E064E080E00E9452
:102D2000590140E065E080E00E94590140E066E022
:102D300080E00E94590140E067E080E00E94590174
:102D400040E060E080E00E94B20040E061E080E0AE
:102D50000E94B20040E062E080E00E94B20040E0E9
:102D600063E080E00E94B20081E08F8787E0888B7B
:102D7000CE010F960E9449000AE910E08AEFC82EA2
:102D800081E0D82E9BEEE92E91E0F92EF801A1808A
:102D9000B08040E06A2D8B2D0E94B20041E06A2D88
:102DA0008B2D0E945901F60111926F0181E0F7010C
:102DB00081937F010E5F1F4FF0E0083B1F0731F743
:102DC00040E060E082E00E94B20041E060E082E02A
:102DD0000E94590140E061E082E00E94B20041E0BF
:102DE00061E082E00E94590180EA96E8A1E0B0E04B
:102DF0008B879C87AD87BE87CE010B960E9496017C
:102E000080E690E00E94E40980E690E00E946B0B6F
:102E100060960FB6F894DEBF0FBECDBFDF91CF91A5
:102E20001F910F91FF90EF90DF90CF90BF90AF90E8
:102E30000895EF92FF920F931F93CF93DF930AE9C8
:102E400010E08BEEE82E81E0F82ED0E0C0E0F80133
:102E5000618180810E940701F7019081913031F4F6
:102E6000811104C0FE01E650FE4F9083F70181936B
:102E70007F0121960E5F1F4FCF30D10541F7DF91C3
:102E8000CF911F910F91FF90EF9008958F3050F4E4
:102E9000E82FF0E0E650FE4F8081882321F0108279
:102EA00081E0089580E008950C943A05EF92FF9236
:102EB0000F931F93CF93DF93C82F08EC10E08CE2A1
:102EC000E82EFF24F394C13069F004E610E024E614
:102ED000E22EF12CC23031F006E410E096E4E92E47
:102EE000F12CC3E0D0E041E067E083E00E945901AB
:102EF000C7010E94EF1540E067E083E00E9459019E
:102F0000C8010E94EF15DF5FCD13EDCFDF91CF91A8
:102F10001F910F91FF90EF9008958091EA01811128
:102F200013C088EB90E00E943A0580E690E00E9492
:102F30006B0B2FEC30E040E060E080E690E00E9418
:102F4000520B81E08093EA0108958EED90E00E949B
:102F50003A0580E690E00E946B0B28EF30E040E0FD
:102F600060E080E690E00C94520B089583E00C94AE
:102F7000181686E091E00E94541740E064E080E07B
:102F80000E94590140E065E080E00C94590188E11D
:102F900091E00E94541741E066E080E00E945901F0
:102FA00040E067E080E00C94590188E291E00E94E3
:102FB000541740E066E080E00E94590141E067E07C
:102FC00080E00C945901089580E00E9418168A3F11
:102FD000910548F0843F21E0920738F08E3E924000
:102FE00030F083E0089580E0089581E0089582E064
:102FF0000895CF93C82F0E94E4178C1778F488E3C4
:1030000091E00E94541741E064E080E00E94590181
:1030100040E065E080E0CF910C945901C81758F466
:103020008CE491E00E94541740E064E080E00E944C
:10303000590141E0EECFCF9108950C94C7170C943D
:10304000D5170C94B9170C94F91710920A02109224
:103050000902089565E082E00E94070181E00E9474
:1030600018168132934038F083E090E090930A0282
:1030700080930902089567E081E00E9407011092A1
:103080000A021092090290E080E0089590930A02EB
:10309000809309020895CF930E94E417C82F82E617
:1030A00091E00E943A058C2F90E00E944C0585EF3C
:1030B00090E0CF910C943A0510920A021092090206
:1030C00008950C942A1881E090E090930A0280936E
:1030D0000902089590E090930A02809309020895EE
:1030E0002091090230910A028217130621F41092EE
:1030F0000A0210920902089581E02091090230919C
:103100000A02232B09F480E008950E94B8140E945B
:103110005C180E94B51710921102109210021092C2
:103120000F0210920E0210920D020E9475090E9469
:10313000870970E060E090E080E00E9484098AE600
:1031400091E00E947E0910920C0210920B020895E9
:10315000CF93DF930E94E417C82F0E94191784E0D1
:103160000E944617882309F474C081E090E0909390
:10317000100280930F0280930E0210920D0266E0FF
:1031800081E00E940701892B09F0EDC041E067E072
:1031900083E00E94590141E064E082E00E9459010D
:1031A00080910B0290910C020397E1F00E94870935
:1031B00070E060E090E080E00E94840989E791E09F
:1031C0000E947E0970E060E081E090E00E94840946
:1031D00087E891E00E947E0983E090E090930C02E2
:1031E00080930B0267E081E00E940701892B09F0C0
:1031F00062C140E066E080E00E94590140E067E083
:1032000080E00E94590165E082E00E940701892B5D
:10321000E1F410920E021092100210920F020E941E
:10322000211840E066E080E00E94590140E067E03C
:1032300080E00E94590140E062E082E00E94590172
:1032400040E063E082E00E945901DF91CF910C944D
:10325000B61785E00E944617882349F081E090E088
:103260009093100280930F0280930E020EC087E0AD
:103270000E944617882361F081E090E0909310024D
:1032800080930F0280930E0282E080930D0277CF2D
:1032900086E00E944617882341F082E090E09093F8
:1032A000100280930F0281E0DFCF88E00E94461772
:1032B000882341F082E090E09093100280930F0207
:1032C00081E0E0CF89E00E944617882359F082E030
:1032D00090E09093100280930F0281E080930E02A1
:1032E00083E0D3CF80E00E944617882379F01092C4
:1032F0000D02CC2309F443CF82E090E090931002BA
:1033000080930F0281E080930E0239CF81E00E940A
:103310004617882379F081E080930D02C11107C020
:1033200081E090E09093100280930F02ECCFC230C6
:1033300018F725CF82E00E944617882341F082E0EB
:1033400080930D02C23060F3C230B1F618CF83E033
:103350000E944617882309F412CF83E080930D0260
:10336000C330F0F20CCF40E067E083E00E945901E7
:1033700040E064E082E00E94590180910E028823BF
:1033800009F46DC0C0910F02D0911002C130D10577
:10339000E1F541E064E080E00E94590140E065E031
:1033A00080E00E94590141E062E082E00E94590100
:1033B00040E063E082E00E94590180910B0290910D
:1033C0000C02019709F40ECF0E94870970E060E0BB
:1033D00090E080E00E94840983E991E00E947E09E8
:1033E00070E060E081E090E00E94840980EA91E072
:1033F0000E947E0980910D0290E0C0960E947B0998
:10340000D0930C02C0930B02EDCEC230D10509F06F
:10341000E9CE40E064E080E00E94590141E065E0CF
:1034200080E00E94590140E062E082E00E94590180
:1034300041E063E082E00E94590180910B0290918B
:103440000C02029709F4CECE0E94870970E060E07A
:1034500090E080E00E94840987EA91E0BFCF40E0DD
:1034600064E080E00E94590140E065E080E00E9455
:10347000590140E062E082E00E94590140E063E0CF
:1034800082E00E94590180910B0290910C02892BDD
:1034900009F4A8CE0E94870970E060E090E080E027
:1034A0000E94840986EB91E00E947E0910920C0232
:1034B00010920B0297CE8AE00E944617882319F0DB
:1034C0000E941D18A0CE8BE00E944617882309F4A5
:1034D0009ACE0E941F1897CE882339F0909111023E
:1034E0009F5F909311020C946A1808950E9427160A
:1034F0000E94E3170E9425180E94CF150E9485188C
:103500000E948D170E94A818FDCFAA1BBB1B51E17A
:1035100007C0AA1FBB1FA617B70710F0A61BB70B43
:10352000881F991F5A95A9F780959095BC01CD01E8
:103530000895A1E21A2EAA1BBB1BFD010DC0AA1FF4
:10354000BB1FEE1FFF1FA217B307E407F50720F00C
:10355000A21BB30BE40BF50B661F771F881F991F87
:103560001A9469F760957095809590959B01AC01D0
:10357000BD01CF010895A29FB001B39FC001A39FD9
:10358000700D811D1124911DB29F700D811D11249C
:10359000911D08950E94BB1AA59F900DB49F900D98
:0E35A000A49F800D911D11240895F894FFCF73
:1035AE003E021000000000003A00370034003100E7
:1035BE000001010100013F065B4F666D7D077F6FC5
:1035CE0001030206040C080903060C090102040893
:1035DE00802500000300000000000100010101022F
:1035EE0001030300030103020303030403050104A3
:1035FE0001050106010702055354415455533A2063
:10360E0053797374656D2052656164790D0A0045B6
:10361E004C455641544F5220524541445900464163
:10362E00554C543A20454D455247454E4359204638
:10363E0041554C54210D0A00212121204641554C63
:10364E005420212121004D4F54494F4E3A2053749E
:10365E006F707065640D0A00444F4F523A204F70E0
:10366E00656E696E670D0A00444F4F523A20436CE7
:10367E006F73696E670D0A004D4F54494F4E3A20D5
:10368E004D6F76696E672055500D0A004D4F5449A7
:10369E004F4E3A204D6F76696E6720444F574E0D50
:1036AE000A00466C6F6F723A2000456C6576617445
:1036BE006F72205265616479002121205741524E6C
:1036CE00494E47202121004F5645524C4F4144450B
:1036DE00442100476F696E6720555020746F3A0081
:1036EE00466C6F6F722000476F696E6720444F57AC
:1036FE004E20746F3A00456C657661746F72204986
:04370E00646C650082
:00000001FF
