:100000000C942A000C9447000C9447000C94470071
:100010000C94FE040C94D5040C9447000C94AC048E
:100020000C9447000C9483040C945A040C943104EF
:100030000C9447000C9437060C9447000C9447002E
:100040000C9447000C9447000C9447000C94470014
:100050000C94470011241FBECFE5D8E0DEBFCDBF12
:1000600011E0A0E6B0E0EEE4F4E302C005900D92EA
:10007000AA36B107D9F721E0AAE6B1E001C01D9286
:10008000A23BB207E1F70E94F5180C94251A0C94D4
:10009000000080E00E94A117882321F060E080E04A
:1000A0000E942C1681E00E94A117882321F060E0B5
:1000B00081E00E942C1682E00E94A117882321F083
:1000C00060E082E00E942C1683E00E94A117882342
:1000D00021F060E083E00E942C1684E00E94A117CA
:1000E000882321F061E080E00E942C1685E00E94C8
:1000F000A117882321F061E081E00E942C1687E09F
:100100000E94A117882321F061E082E00E942C1652
:1001100086E00E94A117882321F062E081E00E941E
:100120002C1688E00E94A117882321F062E082E06B
:100130000E942C1689E00E94A117882321F062E01A
:1001400083E00C942C160895FC01892BF1F03E9865
:100150003F98808180FD3E9A808181FD3F9A3D9845
:10016000389839983A983B983C983098319832981A
:10017000818180FD309A818181FD319A818182FD6A
:10018000329A379A90E080E0089581E090E00895F7
:10019000379890E080E00895883088F4389839984E
:1001A0003A983B983C9880FD389A81FD399A86951B
:1001B000869509F03A9A369A90E080E0089581E0B9
:1001C00090E0089586B18295869586958370809596
:1001D00081700895009759F034B125B12327322753
:1001E0002327FC013183208390E080E0089581E0A3
:1001F00090E00895CF93DF93EB010E94CC0000972D
:1002000049F40E94E2008823E1F3CE01DF91CF910F
:100210000C94EA00DF91CF910895843030F4683077
:1002200020F4442329F04130C9F081E090E00895A2
:10023000E82FF0E0EE0FFF1FE859FF4F0190F0812B
:10024000E02D208181E090E001C0880F6A95EAF7F7
:1002500080958223808390E080E00895E82FF0E08D
:10026000EE0FFF1FE859FF4F0190F081E02D8081D4
:1002700021E030E001C0220F6A95EAF7822BEACF35
:10028000843020F4662329F0613081F081E090E031
:100290000895E82FF0E0EE0FFF1FE859FF4F01909F
:1002A000F081E02D108290E080E00895E82FF0E0EA
:1002B000EE0FFF1FE859FF4F0190F081E02D8FEF07
:1002C0008083F1CF8430D0F46830C0F4E3E3F0E011
:1002D000823051F0E0E3F0E0833031F0E6E3F0E02B
:1002E000813011F0E9E3F0E0808190E002C0959563
:1002F00087956A95E2F781709927089590E080E0EC
:100300000895843070F4823041F0833041F08130C0
:1003100011F089B3089586B3089583B3089580B327
:10032000089580E008958430E0F46830D0F4E5E387
:10033000F0E0823051F0E2E3F0E0833031F0EBE3C3
:10034000F0E0813011F4E8E3F0E0808121E030E07A
:1003500001C0220F6A95EAF78227808390E080E04F
:10036000089581E090E00895843008F56830F8F44D
:10037000E5E3F0E0823051F0E2E3F0E0833031F089
:10038000EBE3F0E0813011F4E8E3F0E081E090E0AD
:1003900001C0880F6A95EAF79081411106C08095E7
:1003A0008923808390E080E00895892BFACF81E053
:1003B00090E00895843090F4E5E3F0E0823051F06D
:1003C000E2E3F0E0833031F0EBE3F0E0813011F470
:1003D000E8E3F0E0608390E080E0089581E090E061
:1003E0000895CF92DF92EF92FF92CF93DF93EC01CB
:1003F000892B09F442C0288139814A815B8121150A
:10040000310541055105C9F1C12C62E1D62E6AE7DB
:10041000E62EF12CC701B6010E94E9192131310500
:100420004105510550F108980998288139814A8180
:100430005B81C701B6010E94E919DA01C901409741
:10044000A109B109B695A795979587958F3F910515
:10045000A105B10529F020F08FEF90E0A0E0B0E019
:1004600080B986B7846086BF90E080E0DF91CF914D
:10047000FF90EF90DF90CF90089581E090E0F6CF6D
:10048000009761F0FC012081220F22B98181811146
:10049000109A84EC86BF90E080E0089581E090E0BF
:1004A000089586B78B7F86BF90E080E0089584EA48
:1004B00086BF06B607FEFDCF21B1287F283031F078
:1004C00081E090E0203121F480E0089580E090E028
:1004D000089584E986BF06B604FCFDCF90E080E075
:1004E000089583B984E886BF06B607FEFDCF90E085
:1004F00080E0089581E090E0089581E090E0089523
:1005000081E090E0089581E090E0089581E090E03E
:1005100008950895089581E090E0089581E090E0C5
:10052000089581E090E0089581E090E0089581E0F1
:1005300090E0089581E090E0089583309105E8F41B
:1005400067708130910559F0029781F083B7887FF9
:1005500083BF83B7682B63BF90E080E008958EB5BA
:10056000887F8EBD8EB5682B6EBDF6CF85B5887F32
:1005700085BD85B5682B65BDEFCF81E090E008951E
:10058000FC01892B09F442C02081318123303105DF
:10059000E8F58281938121153105D9F022303105AA
:1005A000D9F12FB52E7F2FBD2FB52D7F2FBD2EB5A5
:1005B000277F2EBD2EB52F7E2EBD8130910509F4EB
:1005C00047C0E0F0029709F440C08FB581608FBD4D
:1005D00015C08130910561F028F00297D1F083B702
:1005E000806402C083B78F7B83BF83B7877F05C0DA
:1005F00083B78F7B83BF83B7886083BF80819181FE
:100600008130910599F140F10297C9F181E090E0C4
:10061000089583B78064EECF8130910561F028F0B2
:10062000029781F085B5806402C085B58F7B85BD5A
:1006300085B5877F05C085B58F7B85BD85B588600D
:1006400085BDDCCF85B58064F8CF8FB581608FBD67
:100650008EB588608EBDD2CF868182BF80858CBFEB
:1006600064817581808191810C949D02868197813E
:100670009DBD8CBD808591859BBD8ABDF1CF868156
:1006800084BD808583BDECCF8330910598F48130A3
:10069000910541F0029751F083B7887F83BF90E0C6
:1006A00080E008958EB5887F8EBDF9CF85B5887FAF
:1006B00085BDF5CF81E090E008958330910570F419
:1006C0008130910531F0029739F062BF90E080E00F
:1006D00008957DBD6CBDFACF64BDF8CF81E090E098
:1006E0000895FB018330910598F4309789F08130AB
:1006F000910529F0029751F082B790E002C08CB5C5
:100700009DB59183808390E080E0089584B5F5CF16
:1007100081E090E008958330910570F48130910577
:1007200031F0029739F06CBF90E080E008957BBD16
:100730006ABDFACF63BDF8CF81E090E008958330C1
:100740009105D8F48130910561F0029781F089B765
:1007500091E0672B09F092E0892B89BF90E080E05F
:10076000089589B790E1672BB9F794E0F5CF89B781
:1007700090E8672B89F790E4EFCF81E090E008954F
:1007800083309105D8F48130910561F0029781F0B2
:1007900089B79EEF672B09F09DEF892389BF90E011
:1007A00080E0089589B79FEE672BB9F79BEFF5CFEF
:1007B00089B79FE7672B89F79FEBEFCF81E090E048
:1007C0000895CF93DF938330910548F5EC0170E0F5
:1007D00060E00E94C00361E070E0CE010E94C003AF
:1007E000C130D105A1F0C230D105B1F013BE12BEA7
:1007F000CC0FDD1FCC0FDD1FC659DE4F19821882CA
:100800001B821A8290E080E0DF91CF9108951FBC97
:100810001EBC1DBC1CBCECCF15BC14BCE9CF81E0D8
:1008200090E0F2CF8330910588F44115510571F0C5
:10083000FC01EE0FFF1FE60FF71FEE0FFF1FE6593B
:10084000FE4F5183408390E080E0089581E090E086
:1008500008958FB780688FBF08958FB78F778FBF48
:1008600008951F920F920FB60F9211242F933F936A
:100870004F935F936F937F938F939F93AF93BF93A8
:10088000EF93FF93E0916A01F0916B01309709F0CB
:100890000995FF91EF91BF91AF919F918F917F91BA
:1008A0006F915F914F913F912F910F900FBE0F90DD
:1008B0001F9018951F920F920FB60F9211242F932D
:1008C0003F934F935F936F937F938F939F93AF93D8
:1008D000BF93EF93FF93E0916C01F0916D0130971E
:1008E00009F00995FF91EF91BF91AF919F918F9181
:1008F0007F916F915F914F913F912F910F900FBE1C
:100900000F901F9018951F920F920FB60F921124FF
:100910002F933F934F935F936F937F938F939F9307
:10092000AF93BF93EF93FF93E0916E01F0916F014E
:10093000309709F00995FF91EF91BF91AF919F9189
:100940008F917F916F915F914F913F912F910F9078
:100950000FBE0F901F9018951F920F920FB60F9217
:1009600011242F933F934F935F936F937F938F93B4
:100970009F93AF93BF93EF93FF93E0917001F0913A
:100980007101309709F00995FF91EF91BF91AF91F7
:100990009F918F917F916F915F914F913F912F9197
:1009A0000F900FBE0F901F9018951F920F920FB6C9
:1009B0000F9211242F933F934F935F936F937F93E5
:1009C0008F939F93AF93BF93EF93FF93E091720147
:1009D000F0917301309709F00995FF91EF91BF9164
:1009E000AF919F918F917F916F915F914F913F91C7
:1009F0002F910F900FBE0F901F9018951F920F927E
:100A00000FB60F9211242F933F934F935F936F93E1
:100A10007F938F939F93AF93BF93EF93FF93E09157
:100A20007401F0917501309709F00995FF91EF91EC
:100A3000BF91AF919F918F917F916F915F914F91F6
:100A40003F912F910F900FBE0F901F901895CF934D
:100A5000DF93EC01892BD1F188819981AA81BB8137
:100A60000097A105B10591F19C01AD0184E0220F31
:100A7000331F441F551F8A95D1F760E074E284EF5D
:100A800090E00E94E91921503109832F8F7080BDB9
:100A900029B98E81829580739885990F990F990F46
:100AA0009870892B80689C81990F9670892B80BDE6
:100AB0008C819D81079741F4529A539A549A90E001
:100AC00080E0DF91CF9108955298F7CF81E090E0D8
:100AD000F8CF539854985798569855981092770194
:100AE0001092760190E080E008955D9BFECF8CB976
:100AF00090E080E00895009741F05F9BFECF2CB11D
:100B0000FC01208390E080E0089581E090E008956A
:100B1000009741F05F9B06C02CB1FC01208390E060
:100B200080E0089581E090E00895CF93DF93EC0199
:100B3000892B29F481E090E007C00E947505899116
:100B40008111FBCF90E080E0DF91CF910895EF928B
:100B5000FF920F931F93CF93DF9300D000D000D06C
:100B6000CDB7DEB7009779F480E326960FB6F894F8
:100B7000DEBF0FBECDBFDF91CF911F910F91FF90D0
:100B8000EF900C9475058E010F5F1F4FF80120E068
:100B90003AE0E32EF12C2F5FB7010E94D519805D5A
:100BA0008193CB01009729F5322F3695822F90E063
:100BB000D801A80FB91F780111972E2D201B2317DC
:100BC000D8F0800F911FFC011082F80181918F01F4
:100BD00081111DC090E080E026960FB6F894DEBF2C
:100BE0000FBECDBFDF91CF911F910F91FF90EF907E
:100BF0000895253081F6D8CFF70121917F016C91BE
:100C0000AF0141505109FA0160832C93D5CF0E9466
:100C10007505DBCF0097D9F061157105C1F0FC01B6
:100C200030E020E0615071092617370738F0820F55
:100C3000931FFC01108290E080E008955F9BFECF3F
:100C40005CB14517A1F351932F5F3F4FEDCF81E08A
:100C500090E00895009741F090937701809376019A
:100C6000579A90E080E0089581E090E008951F9207
:100C70000F920FB60F9211242F933F934F935F93D0
:100C80006F937F938F939F93AF93BF93EF93FF9354
:100C90008CB1E0917601F0917701309709F00995D8
:100CA000FF91EF91BF91AF919F918F917F916F9144
:100CB0005F914F913F912F910F900FBE0F901F901A
:100CC0001895DB01FA0182309105A1F028F4019713
:100CD00061F01C92108208958330910579F0049799
:100CE000C1F783E08C9387E003C081E08C9383E0BD
:100CF0008083089583E08C9385E0FACF83E08C9322
:100D000084E0F6CF8230910561F018F4019739F054
:100D100008958330910549F0049759F008956CBF08
:100D2000089570E07BBD6ABD089570E079BD68BD2F
:100D3000089563BD0895EF92FF921F93CF93DF93C1
:100D4000EC017B01CB01019710E040E0833091057D
:100D500040F4FC01ED58FF4F4081FC01E059FF4F8A
:100D600010812885222329F0029718F4842F412F1F
:100D7000182F698188810E94B401412F6B818A817B
:100D80000E94B401FC86EB86DF91CF911F91FF900A
:100D9000EF9008958230910591F018F4019739F0A1
:100DA00008958330910599F00497C1F0089583B7B1
:100DB000662319F0806283BF08958F7DFCCF8FB5C5
:100DC000662319F080688FBD08958F77FCCF8FB5AB
:100DD000662311F08062F7CF8F7DF5CF85B566234E
:100DE00019F0806285BD08958F7DFCCF0F931F930E
:100DF000CF93DF9300D0CDB7DEB78C011A82198272
:100E0000FC0186819781009789F441E082858111F8
:100E100001C040E0F801658184810E94B4010F9017
:100E20000F90DF91CF911F910F910895AE014F5F09
:100E30005F4FBE016E5F7F4F0E946106F8018285A1
:100E400026813781811108C060E0C9010E94CA066D
:100E500040E069818A81E1CFFFEF8F9FC0011124BB
:100E600064E670E00E94D519C9010E94820661E023
:100E7000F801868197810E94CA06D1CF0F931F93F4
:100E8000CF93DF9300D0CDB7DEB7FC011A82198271
:100E9000892B49F481E090E00F900F90DF91CF9182
:100EA0001F910F91089580818430A0F79281943032
:100EB00088F7268137812530310560F78F0141E0C1
:100EC00061810E940D0141E0F801638182810E94ED
:100ED0000D0140E0F801618180810E94B40140E091
:100EE000F801638182810E94B401F80186819781B3
:100EF0000097E1F48481843068F641E065810E94C6
:100F00000D0140E0F801658184810E94B401F8017F
:100F1000128681E0818770E060E0C8010E949B0634
:100F2000C8010E94F60690E080E0B6CFAE014F5FA8
:100F30005F4FBE016E5F7F4F0E94610641E0698195
:100F40008A810E940D0140E069818A810E94B4017A
:100F5000F801868197818430910560F48230910593
:100F600098F4019769F060E0F801868197810E940A
:100F7000CA06CDCF0497B9F78CE485BD13BCF3CF77
:100F80008BE483BF1CBEEFCF8FB581608FBD8EB564
:100F900088608EBD8EB582608EBD8EB581608EBD3F
:100FA000E2CF009771F0FC012185222351F06536D4
:100FB00008F064E6FC0162870E94F60690E080E09B
:100FC000089581E090E00895CF93DF93009789F032
:100FD000FC012185222369F0EC0161E070E00E94B0
:100FE0009B06CE010E94F60690E080E0DF91CF9153
:100FF000089581E090E0FACFCF93DF93009789F0D6
:10100000FC012185222369F0EC0162E070E00E947E
:101010009B06CE010E94F60690E080E0DF91CF9122
:10102000089581E090E0FACF009769F0FC012185F6
:10103000222349F06230710530F4672B11F40C94CF
:10104000E4070C94FC0781E090E008950F931F9350
:10105000CF93DF9300D0CDB7DEB71A821982009705
:1010600071F1FC012185222351F18C0170E060E0D7
:101070000E949B06F80186819781009771F440E0F9
:10108000658184810E94B40190E080E00F900F9010
:10109000DF91CF911F910F910895AE014F5F5F4F88
:1010A000BE016E5F7F4F0E94610660E0F80186819D
:1010B00097810E94CA0640E069818A81E3CF81E07E
:1010C00090E0E4CFCF93DF93009701F1FC012185FD
:1010D0002223E1F0EC0163E070E00E949B068E8128
:1010E0009F81009751F441E06D818C810E94B40191
:1010F00090E080E0DF91CF9108956FEF0E9482062B
:1011000061E08E819F810E94CA06F2CF81E090E06B
:10111000F1CF009779F0FC012185222359F0611568
:10112000710541F083859485FB019183808390E074
:1011300080E0089581E090E00895009769F0FC0157
:101140002185222349F06115710531F08285FB016B
:10115000808390E080E0089581E090E008950F930F
:101160001F93CF93DF9300D0CDB7DEB71A821982D9
:10117000009789F1FC012185222369F18C010E94ED
:101180002608F801868197810097C9F0AE014F5F6C
:101190005F4FBE016E5F7F4F0E94610660E0F80105
:1011A000868197810E94CA0660E0F8018681978156
:1011B0000E94820640E069818A810E94B401F801A0
:1011C0001286118690E080E00F900F90DF91CF9112
:1011D0001F910F91089581E090E0F6CFEF92FF927A
:1011E0001F93CF93DF93EC01892BC1F18881843069
:1011F000A8F58A81843090F58981853078F58B81D6
:10120000853060F510E06981610F41E088810E94BE
:101210000D01892B19F56981610F41E088810E94D8
:10122000B4011F5F143079F710E06B81610F40E06B
:101230008A810E940D017C01892B81F46B81610FF1
:1012400041E08A810E94B4011F5F143071F7C70129
:10125000DF91CF911F91FF90EF900895EE24E394DA
:10126000F12CF5CFCF92DF92EF92FF920F931F9365
:10127000CF93DF9300D000D0CDB7DEB7009709F44D
:1012800065C06115710509F461C07B018C018FEFA8
:10129000FB018083D12CC12CF80161816C0D41E0F0
:1012A00080810E94B401C394F4E0CF12F5CFF8011D
:1012B00061816D0D40E080810E94B401C12CF80174
:1012C00063816C0D82810E946201892BB9F51C82B9
:1012D0001B828B819C814497F0F0F80163816C0D37
:1012E00082810E946201892B49F5F80163816C0DAE
:1012F00082810E946201892BC1F324E0D29EF00119
:101300001124E00FF11FEC0DF11D8481F7018083A2
:1013100090E080E01DC01A82198289819A81803410
:10132000964030F08B819C8101969C838B83D1CF3A
:1013300089819A8101969A838983EFCFC394F4E0DF
:10134000CF12BDCFD394DF12A6CFE2CF81E090E0E1
:101350000F900F900F900F90DF91CF911F910F91F1
:10136000FF90EF90DF90CF9008950F931F93CF934E
:10137000DF93009791F0EB018C01209771F0BE0193
:10138000C8010E943209009741F428812F3FB9F328
:10139000DF91CF911F910F91089581E090E0F8CFF8
:1013A00081E090E0089581E090E0089581E090E090
:1013B000089581E090E0089581E090E0089581E053
:1013C00090E0089581E090E0089581E090E0089534
:1013D000CF92DF92EF92FF920F931F93CF93DF9301
:1013E0008C01C62F6A0179010E945702892B49F4AA
:1013F000F8018081880F0E947102892B29F00E94D8
:10140000690201E010E00EC08C2F0E9471028C0175
:10141000E601EC0CFD1C892B91F7CE15DF0561F47C
:101420000E946902C801DF91CF911F910F91FF9037
:10143000EF90DF90CF90089589910E947102892BDF
:1014400061F3DDCFCF93DF931F92CDB7DEB7698312
:10145000009791F021E030E0AE014F5F5F4F60E018
:101460000E94E809E7ECF0E03197F1F700C00000D6
:101470000F90DF91CF91089581E090E0F9CFEF9246
:10148000FF921F93CF93DF93EC01892B51F4EE244D
:10149000E394F12CC701DF91CF911F91FF90EF9062
:1014A0000895888187FDF3CF8981882381F39A810C
:1014B000992369F3853058F71B822FEF80E792E07C
:1014C000215080409040E1F700C00000898118E37E
:1014D000823008F410E3612FCE010E94220A7C01C1
:1014E000892BA9F68FE19EE40197F1F700C0000077
:1014F000612FCE010E94220A8FE193E00197F1F75C
:1015000000C00000612FCE010E94220A8FE193E00B
:101510000197F1F700C0000088E08C8368E0CE01FD
:101520000E94220A61E0CE010E94220A8FE39FE11D
:101530000197F1F700C0000086E08D8366E0CE01E0
:101540000E94220A8CE08C836CE0CE010E94220A69
:101550001E821F8281E08B839DCFCF93DF931F92EA
:10156000CDB7DEB769830097B1F0FC012381222358
:1015700091F021E030E0AE014F5F5F4F60E40E94E8
:10158000E809E7ECF0E03197F1F700C000000F90B8
:10159000DF91CF91089581E090E0F9CFAB01009702
:1015A000A1F0FC012381222381F06115710569F00E
:1015B000FB019F01241B350B61916111FACF2115AD
:1015C000310531F060E40C94E80981E090E0089581
:1015D00090E080E008954F925F926F927F92AF9279
:1015E000BF92CF92DF92EF92FF920F931F93CF9310
:1015F000DF93CDB7DEB766970FB6F894DEBF0FBEA8
:10160000CDBFFC01892B09F478C02381222309F482
:1016100074C0DB01CA018F010097A105B105C9F4AF
:1016200060E3CF010E94AD0A66960FB6F894DEBF64
:101630000FBECDBFDF91CF911F910F91FF90EF9023
:10164000DF90CF90BF90AF907F906F905F904F9062
:101650000895B7FF19C02DE229839A01AB016627CF
:101660007727CB01621B730B840B950BAA24A394E1
:101670006E01FDE0CF0ED11CB12C76012AE0422E86
:10168000512C612C712C12C0BA01CD01A12CF0CFCC
:101690002AE0B21681F0A30192010E94E919605D6F
:1016A000F60161936F01B901CA01B3946115710527
:1016B0008105910569F78B2DAB0C2A2D281B30E095
:1016C00081110DC041E050E04C0F5D1F240F351F0C
:1016D000F9011082BA01C8010E94CE0AA5CF81503B
:1016E00041E050E04C0F5D1F240F351FF701E80F5C
:1016F000F11D9081F9019083E0CF81E090E094CFDB
:101700000F931F93CF93DF93EC01892B39F481E082
:1017100090E0DF91CF911F910F9108958B818823E5
:10172000B1F38981681798F79A81491780F7623079
:1017300039F0905C633021F090E4613009F090E082
:10174000042F162F940F692F6068CE010E94220A81
:101750000097E9F61E830F83DCCF0F931F93CF937F
:10176000DF93EC0189010E94800B892B41F4B801C1
:10177000CE01DF91CF911F910F910C94CE0A81E0A1
:1017800090E0DF91CF911F910F910895CF93DF9358
:10179000009729F481E090E0DF91CF910895FC015A
:1017A00023812223B9F3EC0161E00E94220A009711
:1017B00089F7EFE3FFE13197F1F700C000001E82E7
:1017C0001F82EACFCF93DF93009729F481E090E066
:1017D000DF91CF910895FC0123812223B9F3EC011D
:1017E00062E00E94220A009789F7EFE3FFE1319758
:1017F000F1F700C000001E821F82EACFFC01892B96
:1018000071F08381882359F08481662331F08460EC
:1018100084836481CF010C94220A8B7FF9CF81E00D
:1018200090E00895FC01892B71F08381882359F0A1
:101830008481662331F0826084836481CF010C94BB
:10184000220A8D7FF9CF81E090E00895FC01892B79
:1018500071F08381882359F08481662331F081609F
:1018600084836481CF010C94220A8E7FF9CF81E0BA
:1018700090E00895009759F0FC012381222339F06C
:10188000662319F06CE10C94220A68E1FCCF81E038
:1018900090E00895EF92FF920F931F93CF93DF9301
:1018A000CDB7DEB728970FB6F894DEBF0FBECDBF19
:1018B000009779F481E090E028960FB6F894DEBFA7
:1018C0000FBECDBFDF91CF911F910F91FF90EF9091
:1018D0000895FC012381222369F34115510551F339
:1018E000683040F78A017C01660F660F660F6064FE
:1018F0000E94220A892BF1F6F801DE011196980167
:10190000285F3F4FAD0181918F718D93E217F307EF
:10191000D1F728E030E060E4C7010E94E809892B94
:1019200049F640E060E0C7010E94800BC5CFCF932D
:10193000DF93EC0141E06F818C810E94B4018AE069
:101940008A95F1F700C040E06F818C810E94B4015C
:101950008AE08A95F1F700C0DF91CF910895EF9268
:10196000FF920F931F93CF93DF938C01D0E0C0E0E1
:10197000E62EF12CA7010C2E02C0559547950A942E
:10198000E2F74170F80163816C0F82810E94B4011B
:101990002196C430D10571F7C801DF91CF911F9115
:1019A0000F91FF90EF900C94970CEF92FF920F9392
:1019B0001F93CF93DF938C01C62FFC01808191810F
:1019C000019741F5F12CE12CD0E0AE010E2C02C0C4
:1019D000559547950A94E2F74170F80163816E0DC1
:1019E00082810E94B401FFEFEF1AFF0A88E0E81637
:1019F000F10459F7C8010E94970CE7ECF0E0319729
:101A0000F1F700C00000DF91CF911F910F91FF907F
:101A1000EF90089562956F70C8010E94AF0C6C2F13
:101A20006F70C8010E94AF0CE8CF1F93CF93DF9374
:101A3000009789F0162FEC0140E06D818C810E94A7
:101A4000B401612FCE010E94D50C90E080E0DF91BF
:101A5000CF911F91089581E090E0F9CF0F931F93EC
:101A6000CF93DF93EC01892B09F4D4C08A818430B1
:101A700008F0D0C08C81843008F0CCC089858823E0
:101A800009F4C8C09A85992309F4C4C0853008F0C8
:101A9000C1C08881998104E0019709F408E08B8135
:101AA000800F9927991F099708F0B4C010E06B8147
:101AB000610F41E08A810E940D016B81610F40E05E
:101AC0008A810E94B4011F5F0113F1CF41E06D8153
:101AD0008C810E940D0141E06F818C810E940D017B
:101AE00040E06D818C810E94B40140E06F818C8167
:101AF0000E94B4018885882351F041E06E818C8179
:101B00000E940D0140E06E818C810E94B4012FEF94
:101B100080E792E0215080409040E1F700C0000053
:101B200088819981892B09F05CC063E0CE010E9415
:101B3000AF0C8FE19EE40197F1F700C0000063E075
:101B4000CE010E94AF0C87E592E00197F1F700C04B
:101B5000000063E0CE010E94AF0C87E592E00197A0
:101B6000F1F700C0000062E0CE010E94AF0C87E5F3
:101B700092E00197F1F700C000008881998160E34D
:101B8000019709F060E28985823008F06860CE0133
:101B90000E94150D88E08C8768E0CE010E94150D2B
:101BA00061E0CE010E94150D8FE39FE10197F1F7EF
:101BB00000C0000086E08D8766E0CE010E94150D12
:101BC0008CE08C876CE0CE010E94150D1E861F866E
:101BD00081E08B8790E080E0DF91CF911F910F91A2
:101BE000089560E3CE010E94D50C8FE19EE4019739
:101BF000F1F700C0000060E3CE010E94D50C87E53C
:101C000092E00197F1F700C0000060E3CE010E946E
:101C1000D50CADCF81E090E0DFCF1F93CF93DF9362
:101C20000097A9F0FC012385222389F0162FEC01EF
:101C300041E0658184810E94B401612FCE010E9440
:101C4000D50C90E080E0DF91CF911F91089581E065
:101C500090E0F9CF0F931F93CF93DF93009741F05C
:101C6000FC012385222321F08C01EB01672B31F449
:101C700081E090E008C0C8010E940D0E69916111D9
:101C8000FACF90E080E0DF91CF911F910F910895FE
:101C90004F925F926F927F92BF92CF92DF92EF92BC
:101CA000FF920F931F93CF93DF93CDB7DEB72A97A1
:101CB0000FB6F894DEBF0FBECDBFFC01009709F44C
:101CC00071C02385222309F46DC0411551056105BA
:101CD0007105B1F460E32A960FB6F894DEBF0FBE2B
:101CE000CDBFDF91CF911F910F91FF90EF90DF90CB
:101CF000CF90BF907F906F905F904F900C940D0E9F
:101D00006A017B018C01CB01BA01F7FE0BC06DE2C9
:101D1000CF010E940D0E66277727CB016C197D0934
:101D20008E099F099E012F5F3F4F7901B12C6901F8
:101D30002AE0422E512C612C712C61157105810510
:101D4000910519F0FAE0BF1218C0B11022C090E05E
:101D500080E02A960FB6F894DEBF0FBECDBFDF91AC
:101D6000CF911F910F91FF90EF90DF90CF90BF9098
:101D70007F906F905F904F900895A30192010E9411
:101D8000E919605DF70161937F01B901CA01B3945C
:101D9000D4CFBA94F601EB0DF11D6081C8010E9409
:101DA0000D0ED3CF81E090E0D4CF0F931F93CF934C
:101DB000DF93EC01892B19F18B85882301F189854B
:101DC0006817E8F49A854917D0F4623039F0905CCE
:101DD000633021F090E4613009F090E0042F162F79
:101DE000940F692F6068CE010E94150D1E870F8722
:101DF00090E080E0DF91CF911F910F91089581E0F5
:101E000090E0F8CF0F931F93CF93DF93EC018901FC
:101E10000E94D50E892B41F4B801CE01DF91CF91FC
:101E20001F910F910C942A0E81E090E0DF91CF91E9
:101E30001F910F910895CF93DF930097A9F0FC01B4
:101E40002385222389F0EC0161E00E94150D8FE3C8
:101E50009FE10197F1F700C000001E861F8690E009
:101E600080E0DF91CF91089581E090E0FACFCF93A9
:101E7000DF930097A9F0FC012385222389F0EC0170
:101E800062E00E94150D8FE39FE10197F1F700C01A
:101E900000001E861F8690E080E0DF91CF910895BC
:101EA00081E090E0FACFFC01892B71F083858823D3
:101EB00059F08485662331F0846084876485CF017E
:101EC0000C94150D8B7FF9CF81E090E00895FC0113
:101ED000892B71F08385882359F08485662331F03E
:101EE000826084876485CF010C94150D8D7FF9CFB6
:101EF00081E090E00895FC01892B71F083858823AF
:101F000059F08485662331F0816084876485CF0130
:101F10000C94150D8E7FF9CF81E090E00895009725
:101F200059F0FC012385222339F0662319F06CE176
:101F30000C94150D68E1FCCF81E090E00895EF92DC
:101F4000FF920F931F93CF93DF93009741F1FC0112
:101F50002385222321F14115510509F16830F8F458
:101F6000EA018C01660F660F660F60640E94150D12
:101F70007E01F8E0EF0EF11C69916F71C8010E94BB
:101F80000D0ECE15DF05C1F740E060E0C801DF911E
:101F9000CF911F910F91FF90EF900C94D50E81E09F
:101FA00090E0DF91CF911F910F91FF90EF900895F6
:101FB000FC0180819181009719F0019781F00895CB
:101FC00024853585A0EDB7E00E940B1A28EE33E09A
:101FD00040E050E00E94E9193BBD2ABD08952485E8
:101FE0003585A0EDB7E00E940B1A28EE33E040E003
:101FF00050E00E94E91939BD28BD0895EF92FF9283
:102000000F931F93CF93DF93EC01892B49F481E069
:1020100090E0DF91CF911F910F91FF90EF90089585
:10202000E880F98083E0E816F10488F748854423C6
:1020300071F30C811D812E813F810217130738F740
:1020400019861A86A42FA695AB87201B310BB0E00A
:102050000E940B1A242F30E050E040E00E94E91962
:10206000200F311F3D872C8782E0E816F10449F5E7
:102070008A81843060F641E06B810E940D0140E06E
:102080006B818A810E94B401EAE7F1E090E080E090
:1020900021913191232B81F4880F991FFC01E6587F
:1020A000FE4FD183C08381E089878A87CE010E9459
:1020B000D80F90E080E0ADCF01968830910541F7D0
:1020C000A6CF8091780181110DC082E08FBD8AE199
:1020D0008EBD8FE39CE997BD86BD1DBC1CBC81E015
:1020E000809378018881998141E0892B69F465E0CA
:1020F00083E00E940D018FB580688FBD80917901CA
:102100008F5F80937901CFCF64E083E00E940D015F
:102110008FB58062F2CF0F931F93CF93DF93EC01C3
:10212000892B29F18985882311F148854617F8F014
:102130006B870C811D812E813F81201B310BA62FC7
:10214000B0E00E940B1A242F30E050E040E00E94E3
:10215000E919200F311F3D872C87CE010E94D80F2F
:1021600090E080E0DF91CF911F910F91089581E081
:1021700090E0F8CFCF93DF93EC01892B49F189856B
:10218000882331F1EC81FD814E815F816E177F07DD
:10219000E8F04617570708F4BA017D876C879B0162
:1021A0002E1B3F0BA885B0E00E940B1A4E1B5F0B45
:1021B0009A0150E040E00E94E9192B87CE010E946D
:1021C000D80F90E080E0DF91CF910895BF01E5CF77
:1021D00081E090E0F8CF009769F0FC01218522238F
:1021E00049F06115710531F08385FB01808390E032
:1021F00080E0089581E090E00895CF93DF93009709
:1022000019F1FC0121852223F9F0EC0180819181F3
:10221000009771F48FB58F778FBD40E065E083E064
:102220000E94B4011A8690E080E0DF91CF9108957A
:10223000019731F48FB58F7D8FBD40E064E0EFCF23
:1022400040E063818281ECCF81E090E0EECF0097A7
:10225000D1F0FC0121852223B1F0208131812115AB
:10226000310559F42FB520682FBD21E0FC012287EC
:102270000E94D80F90E080E0089521303105A9F741
:102280002FB52062F1CF81E090E008958F929F9268
:10229000AF92BF92DF92EF92FF920F931F93CF9373
:1022A000DF930AE711E08AE8E82E81E0F82ED12CCE
:1022B00090EA892E9FE0992EA12CB12CF801C191B2
:1022C000D1918F012097F1F08A858823D9F041E0E0
:1022D0006B818A810E94B4012C853D85A0E8BEE314
:1022E0000E940B1AA50194010E94E91921153105DC
:1022F00019F0C9010197F1F740E06B818A810E94D2
:10230000B401D394E016F106C9F681E090E0DD2037
:1023100011F090E080E0DF91CF911F910F91FF903D
:10232000EF90DF90BF90AF909F908F900895CF93E4
:10233000DF930097B1F1FC012185222391F1EC019B
:102340000E94FD10888199810297D9F4EAE7F1E0B3
:1023500090E080E0219131912C173D0769F4880FBE
:10236000991FFC01E658FE4F11821082198690E0F9
:1023700080E0DF91CF91089501968830910551F763
:10238000F5CF80917901882319F0815080937901EC
:10239000809179018111EACF1FBC1EBC1092780197
:1023A000E5CF81E090E0E5CFDF92EF92FF920F93CF
:1023B0001F93CF93DF937C010097C9F16A30B8F582
:1023C000FC0182819381009769F5C62FD0E0CA583D
:1023D000DF4F688197E0D92EF701808191810197C5
:1023E00009F4609510E000E0C62FD0E0AE01002EA9
:1023F00002C0559547950A94E2F74170F70165814F
:10240000600F84810E94B401009789F40F5F1F4F11
:102410000D1560F3DF91CF911F910F91FF90EF9019
:10242000DF900895019719F484E0D82ED5CF81E08C
:1024300090E0F0CFFF920F931F93CF93DF93EC01C7
:10244000892B51F08C81843038F48A819B810097EC
:1024500031F004E0019721F081E090E01CC007E03A
:102460008D818830C8F7800F9927991F0997A4F7A5
:10247000FF24F39488819981892B09F4F12C10E0D1
:102480006D81610F4F2D8C810E94B401009721F75F
:102490001F5F0113F5CFDF91CF911F910F91FF9037
:1024A00008950F931F93CF93DF93EC01892B39F499
:1024B00081E090E0DF91CF911F910F9108958C8181
:1024C0008430B0F78A819B81009711F104E0019775
:1024D00079F78D81883060F7800F9927991F0997C8
:1024E0003CF710E06D81610F41E08C810E940D018D
:1024F000892BF1F61F5F0113F5CFCE010E941A124E
:1025000031E020E0892B09F430E0832F922FD2CFE5
:1025100007E0DFCF843090F4683080F491E0413000
:10252000510509F090E0492F0E94B40131E020E00C
:10253000892B09F430E0832F922F089581E090E0F9
:102540000895843090F4683080F491E04130510572
:1025500009F490E0492F0E94B40131E020E0892B7A
:1025600009F430E0832F922F089581E090E00895E0
:10257000009741F0029769F06370E62FF0E0E857AA
:10258000FF4F05C06370E62FF0E0E457FF4F8081F6
:1025900008956770E62FF0E0E058FF4FF8CF1F93E3
:1025A000CF93DF93EC01162F462F4170698188810C
:1025B0000E94B40111FB442740F96B818A810E947B
:1025C000B40112FB442740F96D818C810E94B40153
:1025D00013FB442740F96F818E810E94B40181E092
:1025E000111101C080E08D8BDF91CF911F91089573
:1025F000CF93DF93EC01892B29F481E090E0DF9108
:10260000CF91089588818430C0F79A819430A8F7DB
:102610009C81943090F79E81943078F72F8538898B
:10262000232B59F341E069810E940D0141E06B8148
:102630008A810E940D0141E06D818C810E940D0113
:1026400041E06F818E810E940D018C858823C9F045
:102650008885843090F69A85943078F641E06985D3
:102660000E940D0141E06B858A850E940D0141E0C9
:10267000698588850E94B40141E06B858A850E9446
:10268000B40189899A89892B21F481E090E09A8BA1
:10269000898B1C8A1E8A1F8A188E198E1D8A60E0FB
:1026A000CE010E94CF1281E08B8B90E080E0A7CF1B
:1026B000FC01892B61F08389882349F0633071051F
:1026C00030F476876587148A90E080E0089581E091
:1026D00090E00895009779F0FC012389222359F0B6
:1026E0006115710511F461E070E0FC01728B618B82
:1026F00090E080E0089581E090E00895CF93DF932B
:10270000EC01892B49F18B89882331F16115710521
:1027100019F12F85388950E040E08D859E8502971C
:1027200021F4220F331F441F551FDB010E941A1A88
:102730009B01AC0160E67AEE80E090E00E94E9192E
:10274000211531054105510539F03A8B298B90E06F
:1027500080E0DF91CF91089581E090E0FACFCF92B1
:10276000DF92EF92FF92CF93DF93EC01AB01892BC5
:1027700009F440C08B898823E9F162307105D0F5F6
:102780002D853E8564E02230310509F468E08C89AE
:1027900070E0CE88DF88E88CF98C90E0452BF1F46E
:1027A00001960E94D5198C8B8FEFC81AD80AE80AB7
:1027B000F80ACE8ADF8AE88EF98E6C89C9010E94F8
:1027C000B812682FCE010E94CF1290E080E0DF9116
:1027D000CF91FF90EF90DF90CF900895860F971FD5
:1027E00001970E94D5198C8B81E0C81AD108E108A5
:1027F000F108DFCF81E090E0EACFCF92DF92EF9255
:10280000FF920F931F93CF93DF93009771F1FC0119
:102810002389222351F14230510538F58A016B0199
:10282000EC01F12CE12CCE14DF0459F490E080E0AF
:10283000DF91CF911F910F91FF90EF90DF90CF909C
:102840000895B801CE010E94AF1389899A89009733
:1028500021F4FFEFEF1AFF0AE6CFEFE9FFE031972F
:10286000F1F700C000000197F2CF81E090E0E0CFE7
:102870000F931F93CF93DF93EC018A01892B09F10A
:102880008B898823F1F02F85388950E040E08D85D1
:102890009E85029721F4220F331F441F551FDB0131
:1028A0000E941A1A28E631E040E050E00E94E9193F
:1028B000B901A801CE01DF91CF911F910F910C9426
:1028C000FD1381E090E0DF91CF911F910F9108956A
:1028D000CF93DF93009701F1FC0123892223E1F0DC
:1028E000EC018485882351F041E0618580850E9458
:1028F000B40141E06B858A850E94B4016C898D85A5
:102900009E850E94B812682FCE010E94CF1290E0DF
:1029100080E0DF91CF91089581E090E0FACFCF93EE
:10292000DF930097D9F0FC0123892223B9F0EC0151
:1029300060E00E94CF128C85882351F040E06985C9
:1029400088850E94B40140E06B858A850E94B401AD
:102950001D8A90E080E0DF91CF91089581E090E0C2
:10296000FACF009799F0FC012389222379F06115B1
:10297000710561F086899789A08DB18DFB018083F7
:102980009183A283B38390E080E0089581E090E09A
:102990000895009759F0FC012389222339F0168A03
:1029A000178A108E118E90E080E0089581E090E00B
:1029B0000895FC01892BA1F08389882389F0611592
:1029C000710571F02785308985859685029711F408
:1029D000220F331FFB013183208390E080E00895B4
:1029E00081E090E00895FC0190818181982B8281A3
:1029F000982B9F706F5F2FEF30E001C0220F6A9518
:102A0000EAF7892F82230895FC0190818181982B18
:102A10008281892B21E030E001C0220F6A95EAF71C
:102A2000215082230895EDE8F1E010821182128294
:102A300010928A0110928C0110928B0108950895D2
:102A4000843048F5613081F018F06230C9F00895A3
:102A500021E030E001C0220F8A95EAF780918D01D4
:102A6000822B80938D01089521E030E001C0220F78
:102A70008A95EAF780918E01822B80938E010895CA
:102A800021E030E001C0220F8A95EAF780918F01A2
:102A9000822B80938F0108958430C8F421E030E0C8
:102AA000A90102C0440F551F8A95E2F7CA0180951B
:102AB00090918D01982390938D0190918E01982390
:102AC00090938E0190918F01892380938F010895B7
:102AD000FF920F931F93CF93DF938C01F62EEA01A1
:102AE0004130510579F40E94F31481111DC06F2DFE
:102AF000C8010E940415D0E0C0E08823A9F0C2E01C
:102B0000D0E012C042305105B1F40E940415811189
:102B10000BC06F2DC8010E94F31421E090E08111D9
:102B200001C020E0C22FD92FCE01DF91CF911F919C
:102B30000F91FF9008950E94F314C1E0D0E0882324
:102B4000B1F2F2CFAF92BF92CF92DF92EF92FF92AB
:102B50000F931F93CF93DF9380918B0190918C0102
:102B6000D0918A018130910509F041C0E0908D013A
:102B7000F12CC0908E01D12CA0908F01B12C01E0DE
:102B80000D0F10E0C02F043068F0CD2F8C2FDF9197
:102B9000CF911F910F91FF90EF90DF90CF90BF905A
:102BA000AF900895C701002E02C0969587950A94AC
:102BB000E2F780FDEBCFC6010C2E02C096958795FB
:102BC0000A94E2F780FDE2CFC5010C2E02C0969573
:102BD00087950A94E2F780FF07C0602F8DE891E0A7
:102BE0000E94F314882391F20F5F1F4FCBCF0297FF
:102BF00061F600918D0110E0E0908F01F12CC09002
:102C00008E01D12CCD2FCC2309F4BFCFC150980118
:102C10000C2E02C0369527950A94E2F720FDB6CF18
:102C200097010C2E02C0369527950A94E2F720FDF5
:102C3000ADCF96010C2E02C0369527950A94E2F787
:102C400020FFE1CF6C2F8DE891E00E9404158111E7
:102C5000DACF9CCF0C9413150C9420150C944C15C2
:102C6000CF93DF93EB0180938A0140918B015091C8
:102C70008C01682F8DE891E00E94681590938C017B
:102C800080938B01209711F099838883DF91CF91F6
:102C90000C94A215CF93DF9300D000D0CDB7DEB750
:102CA0001C821B822B813C812817390738F00F903A
:102CB0000F900F900F90DF91CF9108951A82198293
:102CC00029813A812034364038F02B813C812F5FB6
:102CD0003F4F3C832B83E6CF29813A812F5F3F4FC3
:102CE0003A832983EDCF97B1907F8770982B97B95E
:102CF000369A81E197E2369B02C00197E1F784B1F1
:102D000095B10895AF92BF92CF92DF92EF92FF926A
:102D10000F931F93CF93DF93CDB7DEB760970FB6B6
:102D2000F894DEBF0FBECDBF40E060E083E00E94BC
:102D30000D0141E061E083E00E940D018AE0E0E9DD
:102D4000F0E0DE01119601900D928A95E1F7CE0137
:102D500001960E94270541E067E083E00E940D0193
:102D600040E067E083E00E94B40141E062E082E07D
:102D70000E940D0141E063E082E00E940D0141E00C
:102D800064E082E00E940D0140E062E082E00E9487
:102D9000B40140E063E082E00E94B40140E064E0FE
:102DA00082E00E94B40141E064E080E00E940D01F5
:102DB00041E065E080E00E940D0141E066E080E0D6
:102DC0000E940D0141E067E080E00E940D0140E0BB
:102DD00064E080E00E94B40140E065E080E00E9491
:102DE000B40140E066E080E00E94B40140E067E0AA
:102DF00080E00E94B40140E060E080E00E940D01AC
:102E000040E061E080E00E940D0140E062E080E08F
:102E10000E940D0140E063E080E00E940D0181E02E
:102E20008F8787E0888BCE010F960E94A4000AE965
:102E300010E080EAC82E81E0D82E91E9E92E91E0D9
:102E4000F92EF801A180B08040E06A2D8B2D0E9400
:102E50000D0141E06A2D8B2D0E94B401F601119203
:102E60006F0181E0F70181937F010E5F1F4FF0E05A
:102E7000083B1F0731F740E060E082E00E940D014F
:102E800041E060E082E00E94B40140E061E082E065
:102E90000E940D0141E061E082E00E94B40180EAFD
:102EA00096E8A1E0B0E08B879C87AD87BE87CE0116
:102EB0000B960E94F10180E690E00E943F0A80E6B6
:102EC00090E00E94C60B60960FB6F894DEBF0FBE6E
:102ED000CDBFDF91CF911F910F91FF90EF90DF90C9
:102EE000CF90BF90AF900895EF92FF920F931F93F2
:102EF000CF93DF930AE910E081E9E82E81E0F82E14
:102F0000D0E0C0E0F801618180810E946201F70198
:102F10009081913031F4811104C0FE01E056FE4FE2
:102F20009083F70181937F0121960E5F1F4FCF3071
:102F3000D10541F7DF91CF911F910F91FF90EF9055
:102F400008958F3050F4E82FF0E0E056FE4F808176
:102F5000882321F0108281E0089580E008950C9488
:102F60009505EF92FF920F931F93CF93DF93C82F96
:102F700008EC10E08CE2E82EFF24F394C13069F0F5
:102F800004E610E024E6E22EF12CC23031F006E433
:102F900010E096E4E92EF12CC3E0D0E041E067E0D8
:102FA00083E00E94B401C7010E944A1640E067E036
:102FB00083E00E94B401C8010E944A16DF5FCD136E
:102FC000EDCFDF91CF911F910F91FF90EF9008957A
:102FD00080919001811113C088EB90E00E949505CB
:102FE00080E690E00E94C60B2FEC30E040E060E00D
:102FF00080E690E00E94AD0B81E0809390010895FF
:103000008EED90E00E94950580E690E00E94C60B50
:1030100028EF30E040E060E080E690E00C94AD0BFB
:10302000089583E00C94731686E091E00E94AF1738
:1030300040E064E080E00E94B40140E065E080E0B0
:103040000C94B40188E191E00E94AF1741E066E082
:1030500080E00E94B40140E067E080E00C94B4019D
:1030600088E291E00E94AF1740E066E080E00E94B5
:10307000B40141E067E080E00C94B401089580E081
:103080000E9473168A3F910548F0843F21E0920721
:1030900038F08E3E924030F083E0089580E008954D
:1030A00081E0089582E00895CF93C82F0E943F18D1
:1030B0008C1778F488E391E00E94AF1741E064E058
:1030C00080E00E94B40140E065E080E0CF910C9484
:1030D000B401C81758F48CE491E00E94AF1740E0A7
:1030E00064E080E00E94B40141E0EECFCF9108950A
:1030F0000C9422180C9430180C9414180C94541836
:103100001092B0011092AF01089565E082E00E9434
:10311000620181E00E9473168132934038F083E0AF
:1031200090E09093B0018093AF01089567E081E053
:103130000E9462011092B0011092AF0190E080E015
:1031400008959093B0018093AF010895CF930E94AA
:103150003F18C82F82E691E00E9495058C2F90E0E1
:103160000E94A70585EF90E0CF910C9495051092F1
:10317000B0011092AF0108950C94851881E090E0A1
:103180009093B0018093AF01089590E09093B001C7
:103190008093AF0108952091AF013091B001821763
:1031A000130621F41092B0011092AF01089581E04E
:1031B0002091AF013091B001232B09F480E00895F4
:1031C0000E9413150E94B7181092B10108950E9431
:1031D0001F150C94BC18882339F09091B1019F5FA2
:1031E0009093B1010C94C5180895CF93DF9300D04C
:1031F000CDB7DEB70E9482160E943E180E9480184A
:103200000E942A160E94E0181A8219820E94E8176A
:10321000D12CC12CF12C10E000E00E9474170E9408
:10322000E7180E9411180E943F18E82E0E94851886
:103230005C01892BF1F005301105D9F00E947C1852
:10324000C5010E94A11841E064E082E00E94B4013F
:103250000E9449000E947C180E94851805E010E039
:10326000892B09F049C040E064E082E00E94B4018B
:103270000EC00E9449000130110509F460C050F0F1
:103280000330110509F471C00530110519F310E080
:1032900000E032C040E062E082E00E94B40140E021
:1032A00063E082E00E94B40140E064E082E00E94BA
:1032B000B401BE016F5F7F4F8E2D0E943016F82E35
:1032C00089819A81892B51F1EF1451F10E947A186A
:1032D0008F2D0E947E1889819A8181309105A9F4F1
:1032E00041E062E082E00E94B40140E063E082E0FD
:1032F0000E94B40101E010E00E94A61805301105FB
:1033000009F050C00E94001888CF029799F740E05A
:1033100062E082E00E94B40141E0E8CFEF10ECCF20
:103320008AE00E94A117882339F38E2D0E942E1661
:103330000E947818D12CC12C03E010E0DDCFFE10E4
:1033400010C00E947C188F2D0E942E1640E062E073
:1033500082E00E94B40140E063E082E00E94B40198
:10336000E7CF8F2D0E947E18C7CF8BE00E94A11758
:10337000811108C08FEFC81AD80A8CE2C81681E004
:10338000D80628F00E947A18D12CC12C80CF8AE070
:103390000E94A117882309F4AFCF0E947818D12C7E
:1033A000C12CAACF0E94E81738CFAA1BBB1B51E142
:1033B00007C0AA1FBB1FA617B70710F0A61BB70BA5
:1033C000881F991F5A95A9F780959095BC01CD014A
:1033D0000895A1E21A2EAA1BBB1BFD010DC0AA1F56
:1033E000BB1FEE1FFF1FA217B307E407F50720F06E
:1033F000A21BB30BE40BF50B661F771F881F991FE9
:103400001A9469F760957095809590959B01AC0131
:10341000BD01CF010895A29FB001B39FC001A39F3A
:10342000700D811D1124911DB29F700D811D1124FD
:10343000911D08950E940B1AA59F900DB49F900DA9
:0E344000A49F800D911D11240895F894FFCFD4
:10344E003E021000000000003A0037003400310048
:10345E000001010100013F065B4F666D7D077F6F26
:10346E0001030206040C080903060C0901020408F4
:10347E008025000003000000000001000101010290
:10348E000103030003010302030303040305010404
:10349E0001050106010702055354415455533A20C4
:1034AE0053797374656D2052656164790D0A004518
:1034BE004C455641544F52205245414459004641C5
:1034CE00554C543A20454D455247454E435920469A
:1034DE0041554C54210D0A00212121204641554CC5
:1034EE005420212121004D4F54494F4E3A20537400
:1034FE006F707065640D0A00444F4F523A204F7042
:10350E00656E696E670D0A00444F4F523A20436C48
:10351E006F73696E670D0A004D4F54494F4E3A2036
:10352E004D6F76696E672055500D0A004D4F544908
:10353E004F4E3A204D6F76696E6720444F574E0DB1
:0A354E000A00466C6F6F723A20000D
:00000001FF
