:100000000C942A000C9447000C9447000C94470071
:100010000C94A3040C947A040C9447000C9451049F
:100020000C9447000C9428040C94FF030C94D60302
:100030000C9447000C9479050C9447000C944700ED
:100040000C9447000C9447000C9447000C94470014
:100050000C94470011241FBECFE5D8E0DEBFCDBF12
:1000600010E0A0E6B0E0E0E6F2E302C005900D92F9
:10007000A43FB107D9F721E0A4EFB0E001C01D9281
:10008000A035B207E1F70E944C180C942E190C947D
:100090000000FC01892BF1F03E983F98808180FDA3
:1000A0003E9A808181FD3F9A3D98389839983A98D8
:1000B0003B983C98309831983298818180FD309AF5
:1000C000818181FD319A818182FD329A379A90E057
:1000D00080E0089581E090E00895379890E080E016
:1000E0000895883088F4389839983A983B983C9825
:1000F00080FD389A81FD399A8695869509F03A9A5D
:10010000369A90E080E0089581E090E0089586B10D
:100110008295869586958370809581700895009765
:1001200059F034B125B1232732272327FC0131832D
:10013000208390E080E0089581E090E00895CF93DF
:10014000DF93EB010E947100009749F40E94870041
:100150008823E1F3CE01DF91CF910C948F00DF91E2
:10016000CF910895843030F4683020F4442329F08E
:100170004130C9F081E090E00895E82FF0E0EE0F03
:10018000FF1FEC57FF4F0190F081E02D208181E0AF
:1001900090E001C0880F6A95EAF7809582238083FA
:1001A00090E080E00895E82FF0E0EE0FFF1FEC579D
:1001B000FF4F0190F081E02D808121E030E001C00F
:1001C000220F6A95EAF7822BEACF843020F4662367
:1001D00029F0613081F081E090E00895E82FF0E0AF
:1001E000EE0FFF1FEC57FF4F0190F081E02D1082C2
:1001F00090E080E00895E82FF0E0EE0FFF1FEC574D
:10020000FF4F0190F081E02D8FEF8083F1CF84309C
:10021000D0F46830C0F4E3E3F0E0823051F0E0E382
:10022000F0E0833031F0E6E3F0E0813011F0E9E313
:10023000F0E0808190E002C0959587956A95E2F79D
:1002400081709927089590E080E00895843070F4DB
:10025000823041F0833041F0813011F089B308954C
:1002600086B3089583B3089580B3089580E0089518
:100270008430E0F46830D0F4E5E3F0E0823051F00F
:10028000E2E3F0E0833031F0EBE3F0E0813011F4B1
:10029000E8E3F0E0808121E030E001C0220F6A95C0
:1002A000EAF78227808390E080E0089581E090E083
:1002B0000895843008F56830F8F4E5E3F0E0823022
:1002C00051F0E2E3F0E0833031F0EBE3F0E0813035
:1002D00011F4E8E3F0E081E090E001C0880F6A9556
:1002E000EAF79081411106C080958923808390E0D0
:1002F00080E00895892BFACF81E090E00895843062
:1003000090F4E5E3F0E0823051F0E2E3F0E0833096
:1003100031F0EBE3F0E0813011F4E8E3F0E06083EA
:1003200090E080E0089581E090E00895CF92DF9220
:10033000EF92FF92CF93DF93EC01892B09F442C037
:10034000288139814A815B8121153105410551059B
:10035000C9F1C12C62E1D62E6AE7E62EF12CC70165
:10036000B6010E94F218213131054105510550F1C5
:1003700008980998288139814A815B81C701B601B3
:100380000E94F218DA01C9014097A109B109B69596
:10039000A795979587958F3F9105A105B10529F000
:1003A00020F08FEF90E0A0E0B0E080B986B78460E5
:1003B00086BF90E080E0DF91CF91FF90EF90DF90DB
:1003C000CF90089581E090E0F6CF009761F0FC01B6
:1003D0002081220F22B981818111109A84EC86BF7D
:1003E00090E080E0089581E090E0089586B78B7FEB
:1003F00086BF90E080E0089584EA86BF06B607FED7
:10040000FDCF21B1287F283031F081E090E020310C
:1004100021F480E0089580E090E0089584E986BFAB
:1004200006B604FCFDCF90E080E0089583B984E82F
:1004300086BF06B607FEFDCF90E080E0089581E01C
:1004400090E0089581E090E0089581E090E00895C3
:1004500081E090E0089581E090E008950895089586
:1004600081E090E0089581E090E0089581E090E0DF
:10047000089581E090E0089581E090E0089581E0A2
:1004800090E0089583309105E8F46770813091051C
:1004900059F0029781F083B7887F83BF83B7682BB9
:1004A00063BF90E080E008958EB5887F8EBD8EB5E5
:1004B000682B6EBDF6CF85B5887F85BD85B5682B69
:1004C00065BDEFCF81E090E00895FC01892B09F430
:1004D00042C02081318123303105E8F5828193814A
:1004E00021153105D9F022303105D9F12FB52E7FF4
:1004F0002FBD2FB52D7F2FBD2EB5277F2EBD2EB53D
:100500002F7E2EBD8130910509F447C0E0F002979F
:1005100009F440C08FB581608FBD15C08130910551
:1005200061F028F00297D1F083B7806402C083B7EE
:100530008F7B83BF83B7877F05C083B78F7B83BFE4
:1005400083B7886083BF808191818130910599F163
:1005500040F10297C9F181E090E0089583B780648B
:10056000EECF8130910561F028F0029781F085B5DA
:10057000806402C085B58F7B85BD85B5877F05C04A
:1005800085B58F7B85BD85B5886085BDDCCF85B59C
:100590008064F8CF8FB581608FBD8EB588608EBDC9
:1005A000D2CF868182BF80858CBF64817581808136
:1005B00091810C944202868197819DBD8CBD80857E
:1005C00091859BBD8ABDF1CF868184BD808583BD29
:1005D000ECCF8330910598F48130910541F002977A
:1005E00051F083B7887F83BF90E080E008958EB597
:1005F000887F8EBDF9CF85B5887F85BDF5CF81E039
:1006000090E008958330910570F48130910531F0C8
:10061000029739F062BF90E080E008957DBD6CBD27
:10062000FACF64BDF8CF81E090E00895FB018330FC
:10063000910598F4309789F08130910529F002975F
:1006400051F082B790E002C08CB59DB59183808354
:1006500090E080E0089584B5F5CF81E090E00895C2
:100660008330910570F48130910531F0029739F0B3
:100670006CBF90E080E008957BBD6ABDFACF63BD9A
:10068000F8CF81E090E0089583309105D8F481306F
:10069000910561F0029781F089B791E0672B09F02D
:1006A00092E0892B89BF90E080E0089589B790E1BE
:1006B000672BB9F794E0F5CF89B790E8672B89F7F6
:1006C00090E4EFCF81E090E0089583309105D8F475
:1006D0008130910561F0029781F089B79EEF672B19
:1006E00009F09DEF892389BF90E080E0089589B7E4
:1006F0009FEE672BB9F79BEFF5CF89B79FE7672B85
:1007000089F79FEBEFCF81E090E00895CF93DF93DF
:100710008330910548F5EC0170E060E00E946503CC
:1007200061E070E0CE010E946503C130D105A1F007
:10073000C230D105B1F013BE12BECC0FDD1FCC0FFD
:10074000DD1FCC50DF4F198218821B821A8290E085
:1007500080E0DF91CF9108951FBC1EBC1DBC1CBC66
:10076000ECCF15BC14BCE9CF81E090E0F2CF833030
:10077000910588F44115510571F0FC01EE0FFF1F42
:10078000E60FF71FEE0FFF1FEC50FF4F5183408322
:1007900090E080E0089581E090E008958FB7806850
:1007A0008FBF08958FB78F778FBF08951F920F92D5
:1007B0000FB60F9211242F933F934F935F936F9334
:1007C0007F938F939F93AF93BF93EF93FF93E091AA
:1007D000F400F091F500309709F00995FF91EF9141
:1007E000BF91AF919F918F917F916F915F914F9149
:1007F0003F912F910F900FBE0F901F9018951F9251
:100800000F920FB60F9211242F933F934F935F9344
:100810006F937F938F939F93AF93BF93EF93FF93C8
:10082000E091F600F091F700309709F00995FF91FB
:10083000EF91BF91AF919F918F917F916F915F9158
:100840004F913F912F910F900FBE0F901F901895D1
:100850001F920F920FB60F9211242F933F934F9335
:100860005F936F937F938F939F93AF93BF93EF9318
:10087000FF93E091F800F091F900309709F00995A5
:10088000FF91EF91BF91AF919F918F917F916F9168
:100890005F914F913F912F910F900FBE0F901F903E
:1008A00018951F920F920FB60F9211242F933F931A
:1008B0004F935F936F937F938F939F93AF93BF9368
:1008C000EF93FF93E091FA00F091FB00309709F06D
:1008D0000995FF91EF91BF91AF919F918F917F917A
:1008E0006F915F914F913F912F910F900FBE0F909D
:1008F0001F9018951F920F920FB60F9211242F93ED
:100900003F934F935F936F937F938F939F93AF9397
:10091000BF93EF93FF93E091FC00F091FD003097BF
:1009200009F00995FF91EF91BF91AF919F918F9140
:100930007F916F915F914F913F912F910F900FBEDB
:100940000F901F9018951F920F920FB60F921124BF
:100950002F933F934F935F936F937F938F939F93C7
:10096000AF93BF93EF93FF93E091FE00F091FF00F0
:10097000309709F00995FF91EF91BF91AF919F9149
:100980008F917F916F915F914F913F912F910F9038
:100990000FBE0F901F901895CF93DF93EC01892B1A
:1009A000D1F188819981AA81BB810097A105B10508
:1009B00091F19C01AD0184E0220F331F441F551FAC
:1009C0008A95D1F760E074E284EF90E00E94F2181B
:1009D00021503109832F8F7080BD29B98E81829576
:1009E00080739885990F990F990F9870892B80685B
:1009F0009C81990F9670892B80BD8C819D81079772
:100A000041F4529A539A549A90E080E0DF91CF914A
:100A100008955298F7CF81E090E0F8CF539854981A
:100A2000579856985598109201011092000190E045
:100A300080E008955D9BFECF8CB990E080E0089542
:100A4000009741F05F9BFECF2CB1FC01208390E02A
:100A500080E0089581E090E00895009741F05F9B69
:100A600006C02CB1FC01208390E080E0089581E075
:100A700090E00895CF93DF93EC01892B29F481E076
:100A800090E007C00E941A0589918111FBCF90E088
:100A900080E0DF91CF9108950097D9F0611571053D
:100AA000C1F0FC0130E020E06150710926173707E2
:100AB00038F0820F931FFC01108290E080E00895CF
:100AC0005F9BFECF5CB14517A1F351932F5F3F4F62
:100AD000EDCF81E090E00895009741F090930101FF
:100AE00080930001579A90E080E0089581E090E0C3
:100AF00008951F920F920FB60F9211242F933F93D8
:100B00004F935F936F937F938F939F93AF93BF9315
:100B1000EF93FF938CB1E0910001F09101013097C8
:100B200009F00995FF91EF91BF91AF919F918F913E
:100B30007F916F915F914F913F912F910F900FBED9
:100B40000F901F901895DB01FA0182309105A1F0FA
:100B500028F4019761F01C9210820895833091056A
:100B600079F00497C1F783E08C9387E003C081E0BC
:100B70008C9383E08083089583E08C9385E0FACFA3
:100B800083E08C9384E0F6CF8230910561F018F415
:100B9000019739F008958330910549F0049759F091
:100BA00008956CBF089570E07BBD6ABD089570E044
:100BB00079BD68BD089563BD0895EF92FF921F93BC
:100BC000CF93DF93EC017B01CB01019710E040E074
:100BD0008330910540F4FC01E157FF4F4081FC0157
:100BE000E457FF4F10812885222329F0029718F43B
:100BF000842F412F182F698188810E945901412F2C
:100C00006B818A810E945901FC86EB86DF91CF912E
:100C10001F91FF90EF9008958230910591F018F4A4
:100C2000019739F008958330910599F00497C1F048
:100C3000089583B7662319F0806283BF08958F7D7E
:100C4000FCCF8FB5662319F080688FBD08958F772C
:100C5000FCCF8FB5662311F08062F7CF8F7DF5CF83
:100C600085B5662319F0806285BD08958F7DFCCF20
:100C70000F931F93CF93DF9300D0CDB7DEB78C01D6
:100C80001A821982FC0186819781009789F441E0DC
:100C90008285811101C040E0F801658184810E9454
:100CA00059010F900F90DF91CF911F910F910895EF
:100CB000AE014F5F5F4FBE016E5F7F4F0E94A30585
:100CC000F801828526813781811108C060E0C90161
:100CD0000E940C0640E069818A81E1CFFFEF8F9F7F
:100CE000C001112464E670E00E94DE18C9010E9470
:100CF000C40561E0F801868197810E940C06D1CF7E
:100D00000F931F93CF93DF9300D0CDB7DEB7FC01D5
:100D10001A821982892B49F481E090E00F900F909C
:100D2000DF91CF911F910F91089580818430A0F7BA
:100D30009281943088F7268137812530310560F71C
:100D40008F0141E061810E94B20041E0F8016381BE
:100D500082810E94B20040E0F801618180810E949E
:100D6000590140E0F801638182810E945901F80134
:100D7000868197810097E1F48481843068F641E0B0
:100D800065810E94B20040E0F801658184810E9483
:100D90005901F801128681E0818770E060E0C801A6
:100DA0000E94DD05C8010E94380690E080E0B6CFC1
:100DB000AE014F5F5F4FBE016E5F7F4F0E94A30584
:100DC00041E069818A810E94B20040E069818A81A4
:100DD0000E945901F801868197818430910560F461
:100DE0008230910598F4019769F060E0F8018681FE
:100DF00097810E940C06CDCF0497B9F78CE485BD8E
:100E000013BCF3CF8BE483BF1CBEEFCF8FB58160E3
:100E10008FBD8EB588608EBD8EB582608EBD8EB55D
:100E200081608EBDE2CF009771F0FC012185222305
:100E300051F0653608F064E6FC0162870E943806CE
:100E400090E080E0089581E090E00895CF93DF93F3
:100E5000009789F0FC012185222369F0EC0161E013
:100E600070E00E94DD05CE010E94380690E080E02F
:100E7000DF91CF91089581E090E0FACFCF93DF9397
:100E8000009789F0FC012185222369F0EC0162E0E2
:100E900070E00E94DD05CE010E94380690E080E0FF
:100EA000DF91CF91089581E090E0FACF009769F04B
:100EB000FC012185222349F06230710530F4672B53
:100EC00011F40C9426070C943E0781E090E00895FD
:100ED0000F931F93CF93DF9300D0CDB7DEB71A8265
:100EE0001982009771F1FC012185222351F18C01B7
:100EF00070E060E00E94DD05F8018681978100972F
:100F000071F440E0658184810E94590190E080E0A5
:100F10000F900F90DF91CF911F910F910895AE0127
:100F20004F5F5F4FBE016E5F7F4F0E94A30560E081
:100F3000F801868197810E940C0640E069818A81D0
:100F4000E3CF81E090E0E4CFCF93DF93009701F10E
:100F5000FC0121852223E1F0EC0163E070E00E94B6
:100F6000DD058E819F81009751F441E06D818C8178
:100F70000E94590190E080E0DF91CF9108956FEFDA
:100F80000E94C40561E08E819F810E940C06F2CF11
:100F900081E090E0F1CF009779F0FC0121852223D8
:100FA00059F06115710541F083859485FB019183AA
:100FB000808390E080E0089581E090E008950097BC
:100FC00069F0FC012185222349F06115710531F09A
:100FD0008285FB01808390E080E0089581E090E0CD
:100FE00008950F931F93CF93DF9300D0CDB7DEB753
:100FF0001A821982009789F1FC012185222369F167
:101000008C010E946807F801868197810097C9F0DA
:10101000AE014F5F5F4FBE016E5F7F4F0E94A30521
:1010200060E0F801868197810E940C0660E0F8017B
:10103000868197810E94C40540E069818A810E946F
:101040005901F8011286118690E080E00F900F9010
:10105000DF91CF911F910F91089581E090E0F6CF3D
:10106000EF92FF921F93CF93DF93EC01892BC1F195
:1010700088818430A8F58A81843090F58981853013
:1010800078F58B81853060F510E06981610F41E072
:1010900088810E94B200892B19F56981610F41E0B6
:1010A00088810E9459011F5F143079F710E06B812D
:1010B000610F40E08A810E94B2007C01892B81F49B
:1010C0006B81610F41E08A810E9459011F5F1430DA
:1010D00071F7C701DF91CF911F91FF90EF900895B5
:1010E000EE24E394F12CF5CFCF92DF92EF92FF92B2
:1010F0000F931F93CF93DF9300D000D0CDB7DEB70F
:10110000009709F465C06115710509F461C07B01A0
:101110008C018FEFFB018083D12CC12CF801618100
:101120006C0D41E080810E945901C394F4E0CF121C
:10113000F5CFF80161816D0D40E080810E94590179
:10114000C12CF80163816C0D82810E940701892BFB
:10115000B9F51C821B828B819C814497F0F0F801C9
:1011600063816C0D82810E940701892B49F5F8018A
:1011700063816C0D82810E940701892BC1F324E0F9
:10118000D29EF0011124E00FF11FEC0DF11D8481BE
:10119000F701808390E080E01DC01A821982898166
:1011A0009A818034964030F08B819C8101969C839B
:1011B0008B83D1CF89819A8101969A838983EFCFDE
:1011C000C394F4E0CF12BDCFD394DF12A6CFE2CF09
:1011D00081E090E00F900F900F900F90DF91CF91F2
:1011E0001F910F91FF90EF90DF90CF9008950F9394
:1011F0001F93CF93DF93009791F0EB018C01209721
:1012000071F0BE01C8010E947408009741F4288162
:101210002F3FB9F3DF91CF911F910F91089581E096
:1012200090E0F8CF81E090E0089581E090E00895AB
:1012300081E090E0089581E090E0089581E090E001
:10124000089581E090E0089581E090E0089581E0C4
:1012500090E00895CF92DF92EF92FF920F931F9349
:10126000CF93DF938C01C62F6A0179010E94FC01A4
:10127000892B49F4F8018081880F0E941602892B7E
:1012800029F00E940E0201E010E00EC08C2F0E9497
:1012900016028C01E601EC0CFD1C892B91F7CE1592
:1012A000DF0561F40E940E02C801DF91CF911F910A
:1012B0000F91FF90EF90DF90CF90089589910E9459
:1012C0001602892B61F3DDCFCF93DF931F92CDB749
:1012D000DEB76983009791F021E030E0AE014F5F07
:1012E0005F4F60E00E942A09E7ECF0E03197F1F7E8
:1012F00000C000000F90DF91CF91089581E090E051
:10130000F9CFEF92FF921F93CF93DF93EC01892BDC
:1013100051F4EE24E394F12CC701DF91CF911F919A
:10132000FF90EF900895888187FDF3CF898188230E
:1013300081F39A81992369F3853058F71B822FEF47
:1013400080E792E0215080409040E1F700C000002B
:10135000898118E3823008F410E3612FCE010E94E6
:1013600064097C01892BA9F68FE19EE40197F1F7CE
:1013700000C00000612FCE010E9464098FE193E05C
:101380000197F1F700C00000612FCE010E946409AF
:101390008FE193E00197F1F700C0000088E08C83B3
:1013A00068E0CE010E94640961E0CE010E946409F8
:1013B0008FE39FE10197F1F700C0000086E08D8385
:1013C00066E0CE010E9464098CE08C836CE0CE0163
:1013D0000E9464091E821F8281E08B839DCFCF9380
:1013E000DF931F92CDB7DEB769830097B1F0FC01A0
:1013F0002381222391F021E030E0AE014F5F5F4F67
:1014000060E40E942A09E7ECF0E03197F1F700C0B0
:1014100000000F90DF91CF91089581E090E0F9CF27
:10142000AB010097A1F0FC012381222381F061151B
:10143000710569F0FB019F01241B350B619161115E
:10144000FACF2115310531F060E40C942A0981E0CE
:1014500090E0089590E080E008954F925F926F923F
:101460007F92AF92BF92CF92DF92EF92FF920F9353
:101470001F93CF93DF93CDB7DEB766970FB6F8947F
:10148000DEBF0FBECDBFFC01892B09F478C02381DC
:10149000222309F474C0DB01CA018F010097A10562
:1014A000B105C9F460E3CF010E94EF0966960FB65B
:1014B000F894DEBF0FBECDBFDF91CF911F910F918A
:1014C000FF90EF90DF90CF90BF90AF907F906F90A4
:1014D0005F904F900895B7FF19C02DE229839A01BC
:1014E000AB0166277727CB01621B730B840B950B2F
:1014F000AA24A3946E01FDE0CF0ED11CB12C76017D
:101500002AE0422E512C612C712C12C0BA01CD015F
:10151000A12CF0CF2AE0B21681F0A30192010E9423
:10152000F218605DF60161936F01B901CA01B394CD
:10153000611571058105910569F78B2DAB0C2A2D7D
:10154000281B30E081110DC041E050E04C0F5D1FC1
:10155000240F351FF9011082BA01C8010E94100A38
:10156000A5CF815041E050E04C0F5D1F240F351F87
:10157000F701E80FF11D9081F9019083E0CF81E040
:1015800090E094CF0F931F93CF93DF93EC01892BBF
:1015900039F481E090E0DF91CF911F910F91089590
:1015A0008B818823B1F38981681798F79A8149174D
:1015B00080F7623039F0905C633021F090E4613064
:1015C00009F090E0042F162F940F692F6068CE0168
:1015D0000E9464090097E9F61E830F83DCCF0F9306
:1015E0001F93CF93DF93EC0189010E94C20A892BDC
:1015F00041F4B801CE01DF91CF911F910F910C946E
:10160000100A81E090E0DF91CF911F910F91089532
:10161000CF93DF93009729F481E090E0DF91CF91A1
:101620000895FC0123812223B9F3EC0161E00E94BB
:101630006409009789F7EFE3FFE13197F1F700C004
:1016400000001E821F82EACFCF93DF93009729F418
:1016500081E090E0DF91CF910895FC012381222366
:10166000B9F3EC0162E00E946409009789F7EFE3A7
:10167000FFE13197F1F700C000001E821F82EACF20
:10168000FC01892B71F08381882359F084816623C2
:1016900031F0846084836481CF010C9464098B7F72
:1016A000F9CF81E090E00895FC01892B71F08381EE
:1016B000882359F08481662331F0826084836481B9
:1016C000CF010C9464098D7FF9CF81E090E00895FB
:1016D000FC01892B71F08381882359F08481662372
:1016E00031F0816084836481CF010C9464098E7F22
:1016F000F9CF81E090E00895009759F0FC01238133
:10170000222339F0662319F06CE10C94640968E136
:10171000FCCF81E090E00895EF92FF920F931F932A
:10172000CF93DF93CDB7DEB728970FB6F894DEBF1F
:101730000FBECDBF009779F481E090E028960FB6F8
:10174000F894DEBF0FBECDBFDF91CF911F910F91F7
:10175000FF90EF900895FC012381222369F3411546
:10176000510551F3683040F78A017C01660F660F1E
:10177000660F60640E946409892BF1F6F801DE01AE
:1017800011969801285F3F4FAD0181918F718D9324
:10179000E217F307D1F728E030E060E4C7010E94C8
:1017A0002A09892B49F640E060E0C7010E94C20A7D
:1017B000C5CFCF93DF93EC0141E06F818C810E9414
:1017C00059018AE08A95F1F700C040E06F818C8171
:1017D0000E9459018AE08A95F1F700C0DF91CF910C
:1017E0000895EF92FF920F931F93CF93DF938C0195
:1017F000D0E0C0E0E62EF12CA7010C2E02C05595DA
:1018000047950A94E2F74170F80163816C0F828179
:101810000E9459012196C430D10571F7C801DF91AA
:10182000CF911F910F91FF90EF900C94D90BEF92F5
:10183000FF920F931F93CF93DF938C01C62FFC0170
:1018400080819181019741F5F12CE12CD0E0AE012E
:101850000E2C02C0559547950A94E2F74170F801A5
:1018600063816E0D82810E945901FFEFEF1AFF0A1A
:1018700088E0E816F10459F7C8010E94D90BE7EC9B
:10188000F0E03197F1F700C00000DF91CF911F9198
:101890000F91FF90EF90089562956F70C8010E94BC
:1018A000F10B6C2F6F70C8010E94F10BE8CF1F93F2
:1018B000CF93DF93009789F0162FEC0140E06D8104
:1018C0008C810E945901612FCE010E94170C90E07B
:1018D00080E0DF91CF911F91089581E090E0F9CFF2
:1018E0000F931F93CF93DF93EC01892B09F4D4C09E
:1018F0008A81843008F0D0C08C81843008F0CCC05C
:101900008985882309F4C8C09A85992309F4C4C03D
:10191000853008F0C1C08881998104E0019709F4FD
:1019200008E08B81800F9927991F099708F0B4C0B0
:1019300010E06B81610F41E08A810E94B2006B81EF
:10194000610F40E08A810E9459011F5F0113F1CFAE
:1019500041E06D818C810E94B20041E06F818C81F9
:101960000E94B20040E06D818C810E94590140E0EC
:101970006F818C810E9459018885882351F041E054
:101980006E818C810E94B20040E06E818C810E9449
:1019900059012FEF80E792E0215080409040E1F71D
:1019A00000C0000088819981892B09F05CC063E048
:1019B000CE010E94F10B8FE19EE40197F1F700C088
:1019C000000063E0CE010E94F10B87E592E00197F1
:1019D000F1F700C0000063E0CE010E94F10B87E543
:1019E00092E00197F1F700C0000062E0CE010E9492
:1019F000F10B87E592E00197F1F700C000008881C4
:101A0000998160E3019709F060E28985823008F0EE
:101A10006860CE010E94570C88E08C8768E0CE0198
:101A20000E94570C61E0CE010E94570C8FE39FE1AA
:101A30000197F1F700C0000086E08D8766E0CE01D7
:101A40000E94570C8CE08C876CE0CE010E94570CF2
:101A50001E861F8681E08B8790E080E0DF91CF912A
:101A60001F910F91089560E3CE010E94170C8FE142
:101A70009EE40197F1F700C0000060E3CE010E94F0
:101A8000170C87E592E00197F1F700C0000060E3D2
:101A9000CE010E94170CADCF81E090E0DFCF1F9305
:101AA000CF93DF930097A9F0FC012385222389F0CF
:101AB000162FEC0141E0658184810E945901612F5C
:101AC000CE010E94170C90E080E0DF91CF911F9132
:101AD000089581E090E0F9CF0F931F93CF93DF93A8
:101AE000009741F0FC012385222321F08C01EB01BA
:101AF000672B31F481E090E008C0C8010E944F0DCF
:101B000069916111FACF90E080E0DF91CF911F9150
:101B10000F9108954F925F926F927F92BF92CF92F2
:101B2000DF92EF92FF920F931F93CF93DF93CDB786
:101B3000DEB72A970FB6F894DEBF0FBECDBFFC010B
:101B4000009709F471C02385222309F46DC0411563
:101B5000510561057105B1F460E32A960FB6F8945A
:101B6000DEBF0FBECDBFDF91CF911F910F91FF90D0
:101B7000EF90DF90CF90BF907F906F905F904F90ED
:101B80000C944F0D6A017B018C01CB01BA01F7FE69
:101B90000BC06DE2CF010E944F0D66277727CB0166
:101BA0006C197D098E099F099E012F5F3F4F7901B6
:101BB000B12C69012AE0422E512C612C712C611547
:101BC00071058105910519F0FAE0BF1218C0B11036
:101BD00022C090E080E02A960FB6F894DEBF0FBED8
:101BE000CDBFDF91CF911F910F91FF90EF90DF90CC
:101BF000CF90BF907F906F905F904F900895A3011A
:101C000092010E94F218605DF70161937F01B901B2
:101C1000CA01B394D4CFBA94F601EB0DF11D6081E3
:101C2000C8010E944F0DD3CF81E090E0D4CF0F9335
:101C30001F93CF93DF93EC01892B19F18B858823B8
:101C400001F189856817E8F49A854917D0F4623064
:101C500039F0905C633021F090E4613009F090E05D
:101C6000042F162F940F692F6068CE010E94570C25
:101C70001E870F8790E080E0DF91CF911F910F9139
:101C8000089581E090E0F8CF0F931F93CF93DF93F7
:101C9000EC0189010E94170E892B41F4B801CE0195
:101CA000DF91CF911F910F910C946C0D81E090E02A
:101CB000DF91CF911F910F910895CF93DF930097FC
:101CC000A9F0FC012385222389F0EC0161E00E9448
:101CD000570C8FE39FE10197F1F700C000001E86CB
:101CE0001F8690E080E0DF91CF91089581E090E041
:101CF000FACFCF93DF930097A9F0FC01238522232D
:101D000089F0EC0162E00E94570C8FE39FE101979C
:101D1000F1F700C000001E861F8690E080E0DF9192
:101D2000CF91089581E090E0FACFFC01892B71F00A
:101D30008385882359F08485662331F08460848705
:101D40006485CF010C94570C8B7FF9CF81E090E034
:101D50000895FC01892B71F08385882359F08485CF
:101D6000662331F0826084876485CF010C94570C20
:101D70008D7FF9CF81E090E00895FC01892B71F00F
:101D80008385882359F08485662331F081608487B8
:101D90006485CF010C94570C8E7FF9CF81E090E0E1
:101DA0000895009759F0FC012385222339F066231A
:101DB00019F06CE10C94570C68E1FCCF81E090E0E5
:101DC0000895EF92FF920F931F93CF93DF930097A5
:101DD00041F1FC012385222321F14115510509F12F
:101DE0006830F8F4EA018C01660F660F660F6064D4
:101DF0000E94570C7E01F8E0EF0EF11C69916F71A3
:101E0000C8010E944F0DCE15DF05C1F740E060E02C
:101E1000C801DF91CF911F910F91FF90EF900C942B
:101E2000170E81E090E0DF91CF911F910F91FF900D
:101E3000EF900895FC0180819181009719F001973E
:101E400081F0089524853585A0EDB7E00E9414192E
:101E500028EE33E040E050E00E94F2183BBD2ABD7E
:101E6000089524853585A0EDB7E00E94141928EE69
:101E700033E040E050E00E94F21839BD28BD0895DB
:101E8000EF92FF920F931F93CF93DF93EC01892B77
:101E900049F481E090E0DF91CF911F910F91FF9085
:101EA000EF900895E880F98083E0E816F10488F760
:101EB0004885442371F30C811D812E813F810217D7
:101EC000130738F719861A86A42FA695AB87201B0F
:101ED000310BB0E00E941419242F30E050E040E0B4
:101EE0000E94F218200F311F3D872C8782E0E816F0
:101EF000F10449F58A81843060F641E06B810E94EB
:101F0000B20040E06B818A810E945901E4E0F1E077
:101F100090E080E021913191232B81F4880F991F6B
:101F2000FC01EC5FFE4FD183C08381E089878A8703
:101F3000CE010E941A0F90E080E0ADCF019688306C
:101F4000910541F7A6CF8091020181110DC082E079
:101F50008FBD8AE18EBD8FE39CE997BD86BD1DBC18
:101F60001CBC81E0809302018881998141E0892B2A
:101F700069F465E083E00E94B2008FB580688FBD90
:101F8000809103018F5F80930301CFCF64E083E0F2
:101F90000E94B2008FB58062F2CF0F931F93CF9350
:101FA000DF93EC01892B29F18985882311F148857C
:101FB0004617F8F06B870C811D812E813F81201B15
:101FC000310BA62FB0E00E941419242F30E050E00E
:101FD00040E00E94F218200F311F3D872C87CE0170
:101FE0000E941A0F90E080E0DF91CF911F910F9136
:101FF000089581E090E0F8CFCF93DF93EC01892B37
:1020000049F18985882331F1EC81FD814E815F8121
:102010006E177F07E8F04617570708F4BA017D8767
:102020006C879B012E1B3F0BA885B0E00E94141902
:102030004E1B5F0B9A0150E040E00E94F2182B8784
:10204000CE010E941A0F90E080E0DF91CF910895B9
:10205000BF01E5CF81E090E0F8CF009769F0FC0187
:102060002185222349F06115710531F08385FB013B
:10207000808390E080E0089581E090E00895CF9320
:10208000DF93009719F1FC0121852223F9F0EC017F
:1020900080819181009771F48FB58F778FBD40E07B
:1020A00065E083E00E9459011A8690E080E0DF91AC
:1020B000CF910895019731F48FB58F7D8FBD40E0AA
:1020C00064E0EFCF40E063818281ECCF81E090E07B
:1020D000EECF0097D1F0FC0121852223B1F02081C1
:1020E00031812115310559F42FB520682FBD21E02C
:1020F000FC0122870E941A0F90E080E008952130B1
:102100003105A9F72FB52062F1CF81E090E0089565
:102110008F929F92AF92BF92DF92EF92FF920F93B6
:102120001F93CF93DF9304E011E084E1E82E81E078
:10213000F82ED12C90EA892E9FE0992EA12CB12C5B
:10214000F801C191D1918F012097F1F08A85882300
:10215000D9F041E06B818A810E9459012C853D852F
:10216000A0E8BEE30E941419A50194010E94F21890
:102170002115310519F0C9010197F1F740E06B8194
:102180008A810E945901D394E016F106C9F681E0D4
:1021900090E0DD2011F090E080E0DF91CF911F9181
:1021A0000F91FF90EF90DF90BF90AF909F908F9036
:1021B0000895CF93DF930097B1F1FC01218522238D
:1021C00091F1EC010E943F10888199810297D9F426
:1021D000E4E0F1E090E080E0219131912C173D079F
:1021E00069F4880F991FFC01EC5FFE4F1182108289
:1021F000198690E080E0DF91CF91089501968830B4
:10220000910551F7F5CF80910301882319F0815092
:1022100080930301809103018111EACF1FBC1EBC92
:1022200010920201E5CF81E090E0E5CFDF92EF92DE
:10223000FF920F931F93CF93DF937C010097C9F117
:102240006A30B8F5FC0182819381009769F5C62F49
:10225000D0E0CE56DF4F688197E0D92EF70180811C
:102260009181019709F4609510E000E0C62FD0E05D
:10227000AE01002E02C0559547950A94E2F74170D1
:10228000F7016581600F84810E945901009789F4EC
:102290000F5F1F4F0D1560F3DF91CF911F910F91CD
:1022A000FF90EF90DF900895019719F484E0D82E05
:1022B000D5CF81E090E0F0CFFF920F931F93CF93A3
:1022C000DF93EC01892B51F08C81843038F48A81C2
:1022D0009B81009731F004E0019721F081E090E0CC
:1022E0001CC007E08D818830C8F7800F9927991F9F
:1022F0000997A4F7FF24F39488819981892B09F425
:10230000F12C10E06D81610F4F2D8C810E945901DD
:10231000009721F71F5F0113F5CFDF91CF911F9138
:102320000F91FF9008950F931F93CF93DF93EC01CC
:10233000892B39F481E090E0DF91CF911F910F91CB
:1023400008958C818430B0F78A819B81009711F1C8
:1023500004E0019779F78D81883060F7800F992725
:10236000991F09973CF710E06D81610F41E08C8166
:102370000E94B200892BF1F61F5F0113F5CFCE0149
:102380000E945C1131E020E0892B09F430E0832FBA
:10239000922FD2CF07E0DFCF843090F4683080F402
:1023A00091E04130510509F090E0492F0E94590118
:1023B00031E020E0892B09F430E0832F922F08953B
:1023C00081E090E00895843090F4683080F491E0EA
:1023D0004130510509F490E0492F0E94590131E044
:1023E00020E0892B09F430E0832F922F089581E0BB
:1023F00090E00895009741F0029769F06370E62F2E
:10240000F0E0EC55FF4F05C06370E62FF0E0E855B3
:10241000FF4F808108956770E62FF0E0E456FF4F8C
:10242000F8CF1F93CF93DF93EC01162F462F417007
:10243000698188810E94590111FB442740F96B8111
:102440008A810E94590112FB442740F96D818C81D9
:102450000E94590113FB442740F96F818E810E942D
:10246000590181E0111101C080E08D8BDF91CF9186
:102470001F910895CF93DF93EC01892B29F481E01C
:1024800090E0DF91CF91089588818430C0F79A81E0
:102490009430A8F79C81943090F79E81943078F71F
:1024A0002F853889232B59F341E069810E94B200BE
:1024B00041E06B818A810E94B20041E06D818C8194
:1024C0000E94B20041E06F818E810E94B2008C8533
:1024D0008823C9F08885843090F69A85943078F600
:1024E00041E069850E94B20041E06B858A850E94C7
:1024F000B20041E0698588850E94590141E06B8501
:102500008A850E94590189899A89892B21F481E061
:1025100090E09A8B898B1C8A1E8A1F8A188E198ECE
:102520001D8A60E0CE010E94111281E08B8B90E049
:1025300080E0A7CFFC01892B61F08389882349F0D3
:102540006330710530F476876587148A90E080E007
:10255000089581E090E00895009779F0FC012389C7
:10256000222359F06115710511F461E070E0FC015E
:10257000728B618B90E080E0089581E090E0089597
:10258000CF93DF93EC01892B49F18B89882331F1BB
:102590006115710519F12F85388950E040E08D856E
:1025A0009E85029721F4220F331F441F551FDB0124
:1025B0000E9423199B01AC0160E67AEE80E090E076
:1025C0000E94F218211531054105510539F03A8B69
:1025D000298B90E080E0DF91CF91089581E090E039
:1025E000FACFCF92DF92EF92FF92CF93DF93EC017D
:1025F000AB01892B09F440C08B898823E9F1623053
:102600007105D0F52D853E8564E02230310509F451
:1026100068E08C8970E0CE88DF88E88CF98C90E0E7
:10262000452BF1F401960E94DE188C8B8FEFC81AAF
:10263000D80AE80AF80ACE8ADF8AE88EF98E6C8911
:10264000C9010E94FA11682FCE010E94111290E078
:1026500080E0DF91CF91FF90EF90DF90CF900895D1
:10266000860F971F01970E94DE188C8B81E0C81A95
:10267000D108E108F108DFCF81E090E0EACFCF9206
:10268000DF92EF92FF920F931F93CF93DF93009708
:1026900071F1FC012389222351F14230510538F5B3
:1026A0008A016B01EC01F12CE12CCE14DF0459F40A
:1026B00090E080E0DF91CF911F910F91FF90EF901C
:1026C000DF90CF900895B801CE010E94F112898960
:1026D0009A89009721F4FFEFEF1AFF0AE6CFEFE99E
:1026E000FFE03197F1F700C000000197F2CF81E0E1
:1026F00090E0E0CF0F931F93CF93DF93EC018A011B
:10270000892B09F18B898823F1F02F85388950E0D6
:1027100040E08D859E85029721F4220F331F441FD0
:10272000551FDB010E94231928E631E040E050E00C
:102730000E94F218B901A801CE01DF91CF911F913B
:102740000F910C943F1381E090E0DF91CF911F91A6
:102750000F910895CF93DF93009701F1FC01238936
:102760002223E1F0EC018485882351F041E061856A
:1027700080850E94590141E06B858A850E9459013C
:102780006C898D859E850E94FA11682FCE010E946A
:10279000111290E080E0DF91CF91089581E090E008
:1027A000FACFCF93DF930097D9F0FC01238922233E
:1027B000B9F0EC0160E00E9411128C85882351F081
:1027C00040E0698588850E94590140E06B858A85D3
:1027D0000E9459011D8A90E080E0DF91CF91089519
:1027E00081E090E0FACF009799F0FC012389222341
:1027F00079F06115710561F086899789A08DB18D99
:10280000FB0180839183A283B38390E080E00895ED
:1028100081E090E00895009759F0FC01238922237C
:1028200039F0168A178A108E118E90E080E0089594
:1028300081E090E00895FC01892BA1F08389882331
:1028400089F06115710571F0278530898585968538
:10285000029711F4220F331FFB013183208390E094
:1028600080E0089581E090E00895FC0190818181ED
:10287000982B8281982B9F706F5F2FEF30E001C003
:10288000220F6A95EAF7892F82230895FC0190812F
:102890008181982B8281892B21E030E001C0220FB9
:1028A0006A95EAF7215082230895E7E1F1E010826A
:1028B00011821282109214011092160110921501C9
:1028C00008950895843048F5613081F018F0623041
:1028D000C9F0089521E030E001C0220F8A95EAF79F
:1028E00080911701822B80931701089521E030E039
:1028F00001C0220F8A95EAF780911801822B8093FC
:102900001801089521E030E001C0220F8A95EAF70E
:1029100080911901822B8093190108958430C8F4A5
:1029200021E030E0A90102C0440F551F8A95E2F76B
:10293000CA01809590911701982390931701909167
:10294000180198239093180190911901892380937D
:1029500019010895FF920F931F93CF93DF938C017A
:10296000F62EEA014130510579F40E9435148111A7
:102970001DC06F2DC8010E944614D0E0C0E088231E
:10298000A9F0C2E0D0E012C042305105B1F40E947B
:10299000461481110BC06F2DC8010E94351421E02F
:1029A00090E0811101C020E0C22FD92FCE01DF912C
:1029B000CF911F910F91FF9008950E943514C1E0AF
:1029C000D0E08823B1F2F2CFAF92BF92CF92DF92E4
:1029D000EF92FF920F931F93CF93DF93D091140147
:1029E00040911501509116016D2F87E191E00E94F1
:1029F000AA14909316018093150181309105B1F5C9
:102A0000E0901701F12CC0901801D12CA090190171
:102A1000B12C01E00D0F10E0C02F043010F0CD2FCD
:102A200056C0C701002E02C0969587950A94E2F71A
:102A300080FD4DC0C6010C2E02C0969587950A9464
:102A4000E2F780FD44C0C5010C2E02C09695879523
:102A50000A94E2F780FF07C0602F87E191E00E94AF
:102A600035148823A1F10F5F1F4FD6CF0297B9F617
:102A70000091170110E0E0901901F12CC0901801AD
:102A8000D12CCD2FCC2359F2C15098010C2E02C06D
:102A9000369527950A94E2F720FD19C097010C2E70
:102AA00002C0369527950A94E2F720FD10C09601E2
:102AB0000C2E02C0369527950A94E2F720FFE2CF4C
:102AC0006C2F87E191E00E9446148111DBCF8C2F9F
:102AD000DF91CF911F910F91FF90EF90DF90CF90FA
:102AE000BF90AF9008950C9455140C9462140C94FC
:102AF0008E14CF93DF93809314016115710581F0DB
:102B0000EB01682F409115015091160187E191E08A
:102B10000E94AA14909316018093150199838883CB
:102B2000DF91CF910C94E414CF93DF9300D000D0C9
:102B3000CDB7DEB71C821B822B813C812817390759
:102B400038F00F900F900F900F90DF91CF91089574
:102B50001A82198229813A812034364038F02B813B
:102B60003C812F5F3F4F3C832B83E6CF29813A8105
:102B70002F5F3F4F3A832983EDCFCF93DF9390911F
:102B80007F00992381F0EB01682F40E084E790E01B
:102B90000E94170E892B39F4BE0184E790E0DF9183
:102BA000CF910C946C0DDF91CF91089541E067E0D7
:102BB00083E00E94B20040E067E083E00E94590198
:102BC00080E690E00E94300884E790E00E94700C5C
:102BD000892B39F484E790E00E945D0E81E08093B8
:102BE0007F00EAE1F1E0119281E0EA32F807D9F7DB
:102BF0000895CF93DF93CDB7DEB761970FB6F89402
:102C0000DEBF0FBECDBFBE016F5E7F4F80E690E09E
:102C10000E947408892BF9F449894F3FE1F080E163
:102C2000ECEAF0E0DE01119601900D928A95E1F751
:102C3000CE010196E0E030E020E0DC01A20FB31FFE
:102C40006C91461311C0EE0FEE0FE20FF0E0E65E5E
:102C5000FE4F81E0808361960FB6F894DEBF0FBE11
:102C6000CDBFDF91CF9108952F5F3F4F24303105C5
:102C700021F7EF5F0496E430F1F6EDCF803150F4A8
:102C8000E82FF0E0E65EFE4F8081882321F010827D
:102C900081E0089580E0089580917F00882371F09D
:102CA00084E790E00E945D0E6CEB70E080E00E9493
:102CB000BD156BEC70E081E00C94BD15089580911A
:102CC0007F00882371F084E790E00E945D0E69ED3B
:102CD00070E080E00E94BD1567EE70E081E00C942A
:102CE000BD150895EF92FF920F931F93CF93DF933B
:102CF000C82F41E067E083E00E94B20008EC10E0DA
:102D00008CE2E82EFF24F394C13069F004E610E071
:102D100024E6E22EF12CC23031F006E410E096E415
:102D2000E92EF12CC3E0D0E041E067E083E00E94AF
:102D30005901C7010E94941540E067E083E00E94BA
:102D40005901C8010E949415DF5FCD13EDCFDF91CB
:102D5000CF911F910F91FF90EF900895CF93DF9344
:102D600000D0CDB7DEB781E0898397E09A83E0E4B5
:102D7000F1E08083118282838383848393E095834F
:102D800022E030E03783268310861186128614866F
:102D90001386E3E3F1E0808321838283938384833A
:102DA00084E0858383E090E0978386831086118694
:102DB000128614861386CE0101960E94490080E493
:102DC00091E00E94800683E391E00E94800660E02B
:102DD00080E491E00E94130760E083E391E00E94A9
:102DE000130780E491E00E94680783E391E00E946A
:102DF0006807109232011092310110923001109246
:102E00002F0110922E0110922D0110922C01109280
:102E10002B0110922A010F900F90DF91CF9108950E
:102E200080E491E00E94680710922C010895CF93EE
:102E3000DF9300D0CDB7DEB7BE016F5F7F4F80E07C
:102E40000E949F00892B09F529813A81A4E8B3E00B
:102E50000E9414192FEF33E040E050E00E94F21876
:102E6000C90130932F0120932E012639310508F432
:102E700047C0823C21E0920708F444C08E3E924055
:102E800008F442C083E08093300180912C018823B4
:102E900051F09091300180912D01981304C00E944F
:102EA000101710922C0180913101909132010297FC
:102EB000029708F580912A0190912B010196909339
:102EC0002B0180932A01883C9105A8F083E391E0CF
:102ED0000E94680780913101909132018230910502
:102EE000A9F481E090E09093320180933101109237
:102EF0002B0110922A010F900F90DF91CF9108952E
:102F000080E0C1CF81E0BFCF82E0BDCF039779F7EA
:102F10001092320110923101EACFCF93843048F4FD
:102F2000C82F809130018C1306C00E941017109298
:102F30002C01CF910895C0932D0181E080932C0145
:102F400066E480E491E00E941307809130018C17C1
:102F500028F480E491E0CF910C94260780E491E07E
:102F6000CF910C943E0780912E0190912F010895EE
:102F70008091300108958091310190913201019743
:102F8000029798F068E283E391E00E94130783E3DD
:102F900091E00E94260782E090E0909332018093B6
:102FA000310110922B0110922A0108958091310174
:102FB000909132010097A9F0039799F068E283E3BA
:102FC00091E00E94130783E391E00E943E0783E0B3
:102FD00090E0909332018093310110922B01109276
:102FE0002A0108950C94AE168091300108950C9436
:102FF0008D170C94BB170C94D6170C9410171092C5
:103000004E0110924D01089580914D0190914E0115
:10301000089590934E0180934D0108950895109264
:103020004E0110924D010895089581E090E0909333
:103030004E0180934D01089590E090934E0180934E
:103040004D01089520914D0130914E0182171306D4
:1030500021F410924E0110924D01089581E02091CB
:103060004D0130914E01232B09F480E008950E9418
:1030700055140E940F1810924F0108950E94611478
:103080000C941418882339F090914F019F5F90930E
:103090004F010C941C180895CF93DF9300D0CDB747
:1030A000DEB71A8219820E9473150E94F2170E94DD
:1030B000FF170E94F417682EF12CE12C512CD12C13
:1030C000C12C10E000E088E8A82E83E1B82E93E040
:1030D000892E912C8FEFC81AD80A0E9404180097E5
:1030E00049F00E9409180E94FD170E940E1805E081
:1030F00010E0F0CFC601B5010E94DE18892B79F4EB
:1031000081E0581641F1581608F182E0581631F165
:10311000852D90E00196B4010E94DE18582E0E9481
:10312000F417782E0130110549F1D8F0033011055C
:1031300099F104301105D9F1C8010397029718F4E9
:103140008FEFE81AF80A0E940E18C4CF60E082E000
:103150000E947515DDCF61E080E0FACF62E083E088
:10316000F7CFBE016F5F7F4F0E947915682E7816EA
:1031700019F30E94F71701E010E0DECF6812DCCFF0
:103180000E94FD17862D0E9477150E94F917F12CD9
:10319000E12C03E010E0D0CF88ECE816F10460F2F7
:1031A0000E94FB17F12CE12C04E010E0C5CF84E66F
:1031B000E816F10408F210E000E0BECFAA1BBB1B2A
:1031C00051E107C0AA1FBB1FA617B70710F0A61B27
:1031D000B70B881F991F5A95A9F780959095BC0148
:1031E000CD010895A1E21A2EAA1BBB1BFD010DC043
:1031F000AA1FBB1FEE1FFF1FA217B307E407F507A7
:1032000020F0A21BB30BE40BF50B661F771F881F82
:10321000991F1A9469F760957095809590959B0118
:10322000AC01BD01CF010895A29FB001B39FC001C1
:10323000A39F700D811D1124911DB29F700D811DE2
:103240001124911D08950E941419A59F900DB49FFB
:10325000900DA49F800D911D11240895F894FFCF27
:1032600003000200313233343536373839414243B6
:103270004430454600000204030000010002100033
:10328000000000003A003700340031000001010165
:1032900000013F065B4F666D7D077F6F01030206ED
:1032A000040C080903060C09010204083132333406
:1032B000353637383941424344304546534D415203
:1032C0005420454C455641544F5200535441545597
:1032D000533A205245414459002A2A2A2046415552
:1032E0004C54202A2A2A00434845434B2053595323
:0432F00054454D00F4
:00000001FF
